:020000040800F2
:10500000005000202D340108C11101086D11010864
:1050100063110108591101084F1101080000000037
:1050200000000000000000000000000079340108CA
:105030004D1101080000000079340108992C010885
:10504000793401087934010879340108119D000888
:105050007934010879340108F5100108D5100108E8
:10506000A1100108811001086110010879340108BC
:10507000793401087934010879340108DD9B00088E
:105080007934010879340108793401087934010848
:105090009D9300087934010879340108191001083A
:1050A000793401087934010879340108C112010802
:1050B00055120108F1110108419D00083511010840
:1050C0002511010879340108793401081511010806
:1050D00079340108491101084511010879340108A2
:1050E000610F0108B99C0008793401080000000034
:1050F00000000000000000000000000000000000B0
:0C51000000000000000000005FF808F153
:10510C0000500008D8A401080000000000000300B3
:08511C0000000000000000008B
:105128004FEA4002B2F1FE4F0FD34FF09E03B3EBAC
:1051380012620DD94FEA002343F0004310F0004FEC
:1051480023FA02F018BF404270474FF00000704742
:1051580012F1610F01D1420205D110F0004008BFE1
:105168006FF0004070474FF00000704710F8012BB7
:1051780011F8013B012A28BF9A42F7D0D01A70478C
:1051880081F0004102E000BF83F0004330B54FEAF0
:1051980041044FEA430594EA050F08BF90EA020F5D
:1051A8001FBF54EA000C55EA020C7FEA645C7FEAF0
:1051B800655C00F0E2804FEA5454D4EB5555B8BF13
:1051C8006D420CDD2C4480EA020281EA030382EA84
:1051D800000083EA010180EA020281EA0303362D16
:1051E80088BF30BD11F0004F4FEA01314FF4801CE9
:1051F8004CEA113102D0404261EB410113F0004FFB
:105208004FEA03334CEA133302D0524263EB4303B1
:1052180094EA050F00F0A780A4F10104D5F1200E4F
:105228000DDB02FA0EFC22FA05F2801841F10001AA
:1052380003FA0EF2801843FA05F359410EE0A5F17E
:1052480020050EF1200E012A03FA0EFC28BF4CF0AF
:10525800020C43FA05F3C01851EBE37101F0004565
:1052680007D54FF0000EDCF1000C7EEB00006EEB72
:105278000101B1F5801F1BD3B1F5001F0CD34908FC
:105288005FEA30004FEA3C0C04F101044FEA445253
:1052980012F5800F80F09A80BCF1004F08BF5FEADA
:1052A800500C50F1000041EB045141EA050130BDBA
:1052B8005FEA4C0C404141EB010111F4801FA4F15D
:1052C8000104E9D191F0000F04BF01460020B1FAB2
:1052D80081F308BF2033A3F10B03B3F120020CDAEA
:1052E8000C3208DD02F1140CC2F10C0201FA0CF0C8
:1052F80021FA02F10CE002F11402D8BFC2F1200C2D
:1053080001FA02F120FA0CFCDCBF41EA0C019040E2
:10531800E41AA2BF01EB0451294330BD6FEA04042B
:105328001F3C1CDA0C340EDC04F11404C4F1200216
:1053380020FA04F001FA02F340EA030021FA04F328
:1053480045EA030130BDC4F10C04C4F1200220FA7F
:1053580002F001FA04F340EA0300294630BD21FABD
:1053680004F0294630BD94F0000F83F4801306BF83
:1053780081F480110134013D4EE77FEA645C18BF77
:105388007FEA655C29D094EA050F08BF90EA020F0E
:1053980005D054EA000C04BF1946104630BD91EA06
:1053A800030F1EBF0021002030BD5FEA545C05D109
:1053B8004000494128BF41F0004130BD14F5800448
:1053C8003CBF01F5801130BD01F0004545F0FE41BC
:1053D80041F470014FF0000030BD7FEA645C1ABFF1
:1053E800194610467FEA655C1CBF0B46024650EA28
:1053F800013406BF52EA033591EA030F41F4002154
:1054080030BD00BF90F0000F04BF0021704730B5D9
:105418004FF4806404F132044FF000054FF00001AE
:1054280050E700BF90F0000F04BF0021704730B56F
:105438004FF4806404F1320410F0004548BF404244
:105448004FF000013EE700BF42004FEAE2014FEA99
:1054580031014FEA02701FBF12F07F4393F07F4F74
:1054680081F06051704792F0000F14BF93F07F4FA6
:10547800704730B54FF4607401F0004521F00041E9
:1054880020E700BF50EA010208BF704730B54FF06F
:1054980000050AE050EA010208BF704730B511F074
:1054A800004502D5404261EB41014FF4806404F1AC
:1054B80032045FEA915C3FF4DCAE4FF003025FEA2E
:1054C800DC0C18BF03325FEADC0C18BF033202EBB6
:1054D800DC02C2F1200300FA03FC20FA02F001FA10
:1054E80003FE40EA0E0021FA02F11444C1E600BFAF
:1054F80070B54FF0FF0C4CF4E06C1CEA11541DBF62
:105508001CEA135594EA0C0F95EA0C0F00F0DEF82C
:105518002C4481EA030621EA4C5123EA4C5350EA11
:10552800013518BF52EA033541F4801143F4801362
:1055380038D0A0FB02CE4FF00005E1FB02E506F0F3
:105548000042E0FB03E54FF00006E1FB03569CF048
:10555800000F18BF4EF0010EA4F1FF04B6F5007F4E
:1055680064F5407404D25FEA4E0E6D4146EB0606C0
:1055780042EAC62141EA55514FEAC52040EA5E5049
:105588004FEACE2EB4F1FD0C88BFBCF5E06F1ED8F3
:10559800BEF1004F08BF5FEA500E50F1000041EB2A
:1055A800045170BD06F0004646EA010140EA0200D7
:1055B80081EA0301B4EB5C04C2BFD4EB0C0541EAF9
:1055C800045170BD41F480114FF0000E013C00F30E
:1055D800AB8014F1360FDEBF002001F0004170BD32
:1055E800C4F10004203C35DA0C341BDC04F114044B
:1055F800C4F1200500FA05F320FA04F001FA05F2D7
:1056080040EA020001F0004221F0004110EBD370A3
:1056180021FA04F642EB06015EEA430E08BF20EACF
:10562800D37070BDC4F10C04C4F1200500FA04F372
:1056380020FA05F001FA04F240EA020001F0004104
:1056480010EBD37041F100015EEA430E08BF20EA77
:10565800D37070BDC4F1200500FA05F24EEA020EBF
:1056680020FA04F301FA05F243EA020321FA04F0EE
:1056780001F0004121FA04F220EA020000EBD370A5
:105688005EEA430E08BF20EAD37070BD94F0000FA5
:105698000FD101F00046400041EB010111F4801FD9
:1056A80008BF013CF7D041EA060195F0000F18BF8A
:1056B800704703F00046520043EB030313F4801FC6
:1056C80008BF013DF7D043EA0603704794EA0C0F80
:1056D8000CEA135518BF95EA0C0F0CD050EA410696
:1056E80018BF52EA4306D1D181EA030101F0004113
:1056F8004FF0000070BD50EA410606BF104619463B
:1057080052EA430619D094EA0C0F02D150EA013646
:1057180013D195EA0C0F05D152EA03361CBF104687
:1057280019460AD181EA030101F0004141F0FE4126
:1057380041F470014FF0000070BD41F0FE4141F4AA
:10574800780170BD70B54FF0FF0C4CF4E06C1CEAAA
:1057580011541DBF1CEA135594EA0C0F95EA0C0F5F
:1057680000F0A7F8A4EB050481EA030E52EA03351A
:105778004FEA013100F088804FEA03334FF080553B
:1057880045EA131343EA12634FEA022245EA111568
:1057980045EA10654FEA00260EF000419D4208BF19
:1057A800964244F1FD0404F5407402D25B084FEAC6
:1057B8003202B61A65EB03055B084FEA32024FF472
:1057C80080104FF4002CB6EB020E75EB030E22BFCF
:1057D800B61A754640EA0C005B084FEA3202B6EB8F
:1057E800020E75EB030E22BFB61A754640EA5C003E
:1057F8005B084FEA3202B6EB020E75EB030E22BFCE
:10580800B61A754640EA9C005B084FEA3202B6EBCE
:10581800020E75EB030E22BFB61A754640EADC008D
:1058280055EA060E18D04FEA051545EA16754FEAEF
:1058380006164FEAC30343EA52734FEAC2025FEA0D
:105848001C1CC0D111F4801F0BD141EA00014FF09C
:1058580000004FF0004CB6E711F4801F04BF01436D
:105868000020B4F1FD0C88BFBCF5E06F3FF6AFAE89
:10587800B5EB030C04BFB6EB020C5FEA500C50F119
:10588800000041EB045170BD0EF0004E4EEA11319C
:1058980014EB5C04C2BFD4EB0C0541EA045170BDA3
:1058A80041F480114FF0000E013C90E645EA060EE7
:1058B8008DE60CEA135594EA0C0F08BF95EA0C0F15
:1058C8003FF43BAF94EA0C0F0AD150EA01347FF45D
:1058D80034AF95EA0C0F7FF425AF104619462CE734
:1058E80095EA0C0F06D152EA03353FF4FDAE104697
:1058F800194622E750EA410618BF52EA43067FF4E8
:10590800C5AE50EA41047FF40DAF52EA43057FF477
:10591800EBAE12E74FF0FF3C06E000BF4FF0010C82
:1059280002E000BF4FF0010C4DF804CD4FEA410CE6
:105938007FEA6C5C4FEA430C18BF7FEA6C5C1BD0B3
:1059480001B050EA410C0CBF52EA430C91EA030F34
:1059580002BF90EA020F0020704710F1000F91EA91
:10596800030F58BF994208BF90422CBFD8176FEA5F
:10597800E37040F0010070474FEA410C7FEA6C5C2D
:1059880002D150EA013C07D14FEA430C7FEA6C5C34
:10599800D6D152EA033CD3D05DF8040B704700BF60
:1059A8008446104662468C461946634600E000BFAE
:1059B80001B5FFF7B7FF002848BF10F1000F01BD80
:1059C8004DF808EDFFF7F4FF0CBF012000205DF84B
:1059D80008FB00BF4DF808EDFFF7EAFF34BF0120D0
:1059E80000205DF808FB00BF4DF808EDFFF7E0FF69
:1059F80094BF012000205DF808FB00BF4DF808EDBA
:105A0800FFF7CEFF94BF012000205DF808FB00BF20
:105A18004DF808EDFFF7C4FF34BF012000205DF802
:105A280008FB00BF4FEA410212F5001215D211D54A
:105A38006FF47873B3EB625212D94FEAC12343F083
:105A4800004343EA505311F0004F23FA02F018BF05
:105A5800404270474FF00000704750EA013005D1CE
:105A680011F0004008BF6FF0004070474FF0000091
:105A7800704700BF4A0011D212F5001211D20DD59D
:105A88006FF47873B3EB62520ED44FEAC12343F03C
:105A9800004343EA505323FA02F070474FF00000E6
:105AA800704750EA013002D14FF0FF3070474FF095
:105AB800000070474FEA4102B2F1E04324BFB3F55A
:105AC800001CDCF1FE5C0DD901F0004C4FEAC0026D
:105AD8004CEA5070B2F1004F40EB830008BF20F051
:105AE8000100704711F0804F21D113F13872BCBF0B
:105AF80001F00040704741F480114FEA5252C2F160
:105B08001802C2F1200C10FA0CF320FA02F018BFA8
:105B180040F001004FEAC1234FEAD32303FA0CFCFB
:105B280040EA0C0023FA02F34FEA4303CCE77FEA8A
:105B3800625307D150EA01331EBF4FF0FE4040F4D4
:105B48004000704701F0004040F0FE4040F4000083
:105B5800704700BF80F0004002E000BF81F00041C4
:105B680042001FBF5FEA410392EA030F7FEA226CFB
:105B78007FEA236C6AD04FEA1262D2EB1363C1BF8B
:105B8800D218414048404140B8BF5B42192B88BFFA
:105B9800704710F0004F40F4000020F07F4018BF1D
:105BA800404211F0004F41F4000121F07F4118BF3D
:105BB800494292EA030F3FD0A2F1010241FA03FCE5
:105BC80010EB0C00C3F1200301FA03F100F00043CD
:105BD80002D5494260EB4000B0F5000F13D3B0F195
:105BE800807F06D340084FEA310102F10102FE2A04
:105BF80051D2B1F1004F40EBC25008BF20F0010074
:105C080040EA03007047490040EB000010F4000F21
:105C1800A2F10102EDD1B0FA80FCACF1080CB2EBB4
:105C28000C0200FA0CF0AABF00EBC2505242184313
:105C3800BCBFD0401843704792F0000F81F40001B8
:105C480006BF80F400000132013BB5E74FEA41038B
:105C58007FEA226C18BF7FEA236C21D092EA030FF7
:105C680004D092F0000F08BF0846704790EA010F71
:105C78001CBF0020704712F07F4F04D1400028BF9E
:105C880040F00040704712F100723CBF00F5000080
:105C9800704700F0004343F0FE4040F400007047B6
:105CA8007FEA226216BF08467FEA23630146420262
:105CB80006BF5FEA412390EA010F40F48000704775
:105CC8004FF0000304E000BF10F0004348BF40421B
:105CD8005FEA000C08BF704743F0964301464FF057
:105CE80000001CE050EA010208BF70474FF00003B3
:105CF8000AE000BF50EA010208BF704711F00043F4
:105D080002D5404261EB41015FEA010C02BF8446C3
:105D18000146002043F0B64308BFA3F18053A3F522
:105D28000003BCFA8CF2083AA3EBC25310DB01FA69
:105D380002FC634400FA02FCC2F12002BCF1004FED
:105D480020FA02F243EB020008BF20F0010070477E
:105D580002F1200201FA02FCC2F1200250EA4C00D2
:105D680021FA02F243EB020008BF20EADC70704718
:105D78007047017470477047054B1B68052B01BFBE
:105D8800044B18684042C0B218BF4FF0FF3070474C
:105D980038070020C8050020F0B5437C434A047C3E
:105DA8005BB952F824309869B0F88030B0F88200B6
:105DB800181A10F03F0000D1F0BD52F824502B689B
:105DC8009E891888370680B201D507060CD4A869C1
:105DD800B0F88050B0F88200ADB280B2854203D0EE
:105DE800D86840F08000D86052F824309B69B3F836
:105DF8008030013303F03F0352F82470BD69B5F8D1
:105E0800820080B283420AD13868B0F80CE0068874
:105E18001EF0800FB6B2F2D03606F0D520E0EFF3D0
:105E28001080C00713D4B5F880009BB280B225F863
:105E3800101052F8242001209169A1F8803082F8CE
:105E480021001268D36843F08003D360F0BDB5F831
:105E58008060B5F88200B6B280B28642D4D1E2E75B
:105E680006883606CBD5C56825F08005C56052F88A
:105E7800240085690768B5F8820080B2461CB6B26E
:105E8800A5F8826035F81000C0F30800B88052F811
:105E98002450AE69B6F8820000F03F00A6F88200F0
:105EA8002D68E86840F08000E860A5E784070020D6
:105EB800027C0B4B53F822309869B0F88010B0F888
:105EC800822089B292B29142F7D193F821201AB177
:105ED8001A6812885206FBD5002283F821207047E1
:105EE80084070020027C0E4B53F82230DB69B3F89C
:105EF8008010B3F8822089B292B291421FBFB3F8E2
:105F0800822092B213F81200B3F882200FBF4FF02C
:105F1800FF30013202F03F02A3F88220704700BF31
:105F280084070020027C0A4B53F82230DB69B3F85F
:105F38008010B3F8822089B292B291421DBFB3F8A3
:105F4800822092B233F812004FF0FF30704700BF42
:105F580084070020027C064B53F82230DA69B2F835
:105F68008030B2F88200181A00F03F00704700BF76
:105F780084070020027C064B53F82230DA69B2F815
:105F88008030B2F88200181A00F03F00704700BF56
:105F98008407002041747047704700000148036877
:105FA8009B6B1847A0110020F8B506460D468F18C0
:105FB8000024BD420CD0336830469B6815F8011B9D
:105FC8009847002801DB0444F3E7002C08BF044687
:105FD8002046F8BD70470000027C074B53F822208A
:105FE80092F8493092F84A10994286BF9B1893F864
:105FF80029004FF0FF307047A4070020027C094BAE
:1060080053F8222092F8493092F84A10994281BFF9
:10601800591C82F849109B1893F8290098BF4FF033
:10602800FF307047A4070020027C044B53F822304D
:1060380093F84A0093F84930C01A7047A407002023
:10604800F8B5064615460C468F18BC4206D033688C
:1060580030469B6814F8011B9847F6E72846F8BDB8
:10606800027C0C4B53F8223093F86E2072B193F8EF
:106078006D201F2A0CD893F86C00421CD2B2184429
:1060880083F86C2080F84C1083F86D20012070474D
:1060980000207047A407002010B504460DF00EFB41
:1060A800204610BD10B504460DF008FB204610BD73
:1060B80010B504460DF002FB204610BD10B504468D
:1060C8000DF0FCFA204610BD10B504460DF0F6FAA6
:1060D800204610BD01200BF093BD00200BF090BDB1
:1060E80008B5124B1A68052A05D1114A126852429E
:1060F80012F0FF0F02D1007C00B908BD1B68052B08
:1061080012D10B4B0B481A6881541A6801321A6075
:106118001A68B2F5807F04BF00221A6003F078FE87
:1061280010B164200AF0E8FE012008BD38070020FD
:10613800C80500201306002008B50BF09FFD08BD18
:10614800BFF34F8F0449054BCA6802F4E06213435A
:10615800CB60BFF34F8FFEE700ED00E00400FA05C7
:1061680038B5031E0C46154609DA2D22B3F1004F47
:106178000A7008BF18462A4618BF5842013108F06D
:1061880089F8204638BD704708B50B4B1A68D20706
:106198000FD41A786AB90948094942604FF47A72EB
:1061A8008260084A0260012202741A70064A0DF0E1
:1061B80060F9024808BD00BFE8040020D4040020AC
:1061C800795D0008D8740108741100202DE9F8439E
:1061D800184F3B68DB072AD43D7845BB164E4FF471
:1061E8007A73B360154B164C1648DFF86890336025
:1061F800154B4FF00108294684227560E061C4F808
:1062080018901C60357486F811800DF0A3FA2946A1
:10621800842248460DF09EFA84F8205084F82150D4
:1062280087F8008030460949094A0DF022F90248EA
:10623800BDE8F883CC04002034040020386F01083E
:1062480000000020EC04002084070020A15F000863
:10625800741100204804002008B50F4B33B1FFF734
:1062680093FF03681B69984700280DDC0B4B33B17B
:10627800FFF7ACFF03681B699847002807DC084B49
:1062880043B1AFF3008008BDAFF30080EEE7AFF392
:106298000080F4E708BD00BF000000000000000017
:1062A8000000000038B5044600680D4610B1636868
:1062B8008B4208D2691C0DF025FF28B1A36884E839
:1062C800210003B90370012038BD70B50E46114690
:1062D80004461546FFF7E6FF40B9206808B10DF0FF
:1062E800EDF900232360A360636004E0A5602068E3
:1062F800314610F0B5FD204670BD10B50446006863
:106308000DF0DCF9204610BD38B5002304460360C3
:106318004360836003730D4639B108460DF050FFA2
:10632800294602462046FFF7D0FF204638BD704771
:1063380003689B68184738B50D210546FFF7F8FF35
:106348000A2104462846FFF7F3FF204438BD70B5FC
:1063580005460C46084649B10DF032FF2B68024647
:1063680021462846BDE87040DB68184770BD012A01
:1063780098BF0A2230B50B468BB000218DF8241047
:106388000DF12304B3FBF2F505FB1233DBB2092B45
:1063980094BF30333733DBB2214604F801392B463A
:1063A800002DEFD1FFF7D3FF0BB030BDF8B50F4686
:1063B80000F10806051D002416F8011D38460A22BA
:1063C800FFF7D5FFAE42044407D0002CF4D038467E
:1063D8002E21FFF7ADFF0444EEE72046F8BD38B59F
:1063E8000546FFF7B4FF04462846FFF7A4FF2044FC
:1063F80038BD00007FB50C46FFF7C6FE5C49FFF7C5
:10640800EEFF20460DF0DCFE00210722054602A81B
:106418000DF0A0F9002321461A460193081BA84253
:1064280014DA11F8010B7E2802D101320023F5E7B6
:1064380032B1012AF2D104AE1E4406F8080C03E07A
:1064480004AE1E4406F80C0C0133E7E7FFF79CFE88
:1064580002A9FFF7C4FFFFF797FE01A9FFF7BFFFE7
:1064680002A800210EF012FDFFF724FB10F01AFD20
:10647800FEF756FE044601A80DF0FBF8A0F1C8038C
:10648800632B22D9B0F5487F21D06FF44873C31825
:10649800012B1ED9A0F22333012B1CD9A0F596732A
:1064A800632B1AD9A0F5FA73632B18D9A0F51673C4
:1064B800632B16D9A0F52F73632B14D9A0F561703F
:1064C80009288CBF002509250EE001250CE00225CE
:1064D8000AE0032508E0042506E0052504E0062572
:1064E80002E0072500E00825002C4FEAD476B8BF63
:1064F8006442FFF749FE314607F0BAFFFFF744FE52
:10650800214607F0B5FFFFF73FFE294607F0B0FF29
:10651800184B00229A60092CCCBF0822042276006E
:106528001E601A440A2194FBF1F001FB1044124941
:1065380051F82410044642F804190028F2D10F4AF1
:10654800214652F82520DA600D4B188806F0BAFF6C
:106558000C4B0D4A1968914208DC01321A60042478
:10656800FFF712FEFFF7E7FE013CF9D104B070BD5A
:10657800886F010874030020E86F0108606F010844
:106588008803002084030020BF270900704710B546
:106598008368044613B1014603229847204610BD7C
:1065A8007047000038B50546002944D051F8043C2E
:1065B8000C1F002BB8BFE4180DF0D4F81E4A13685E
:1065C800104613B96360146030E09C420DD2226813
:1065D8000460A118994201BFA3589B1823604B6817
:1065E800636023E0A24203D813465A68002AF9D10F
:1065F80018681918A1420BD1216801445818904213
:10660800196013D110680144196052685A600DE08E
:1066180002D90C232B6009E020682118914201BFA0
:10662800116809182160526862605C602846BDE8FC
:1066380038400DF098B838BD70050020F8B5CD1C6D
:1066480025F0030508350C2D38BF0C25002D06460E
:1066580001DB8D4202D20C23336049E00DF082F851
:10666800244B1C681A462146A1B10B685B1B0ED44B
:106678000B2B03D90B60CC18CD501FE08C420BBFFD
:1066880063684B681360636018BF0C4616E00C46DD
:106698004968E9E7184C23681BB930460DF03CFD02
:1066A8002060304629460DF037FD431C04461AD0B9
:1066B800C71C27F0030787420DD1256030460DF02F
:1066C80052F804F10B00231D20F00700C31A10D064
:1066D8005A42E250F8BD3046391B0DF01DFD01301D
:1066E80001D03C46E9E70C23336030460DF03BF817
:1066F8000020F8BD70050020D0040020F8B507463A
:1067080015460E4621B91146BDE8F840FFF796BF79
:106718001AB9FFF747FF2846F8BD51F8043C002B8B
:10672800BEBFCA1852F8042C9B18043BAB420DD2CA
:106738002946FFF783FF044650B131462A460CF03C
:10674800E3FF38463146FFF72DFF01E00846F8BD64
:106758002046F8BD38B502FB01F42146FFF76EFF6D
:10676800054618B1002122460CF0F4FF284638BD32
:106778002DE9F04F10250D709BB000F26F76029155
:10678800D0F87C36834602213046002298470128FB
:1067980040F3C585DBF89436984700238BF82C37EF
:1067A8009BF86FA79BF87037CBF8200743EA0A2AB3
:1067B800DBF800309A4500F29D855846314652462E
:1067C8000BF09EFD0028C0F2958510AA33461546A9
:1067D8000BF27F79144618685968083303C44B458F
:1067E8002246F7D10BF5697738460BF2E46109F0D8
:1067F80013FE3446C4EB0A033344002B31DD234631
:106808000DF1540E04F110087246186859680833DF
:1068180003C243459646F7D138460021234622460F
:1068280006F000F9631E0BF2037104F10F0013F870
:10683800012F11F801EF83428EEA02021A70F6D195
:106848000DF1540E0BF204720DF16408734603CB7C
:106858004345106051609E4602F10802F6D110349B
:10686800C8E72C460BF2047214AF234603CBBB4295
:10687800106051601C4602F10802F6D1BAF1030F0C
:1068880040F2E9859BF86F279BF8704702F00F03E9
:106898000533534534BFF35C0023022C00F0BB855D
:1068A80007D8002C00F0DA85012C00F0978500F05D
:1068B800D2BD032C00F09985452C40F0CC850C24E2
:1068C800DBF800309BF873770BEB0A0808F26F7857
:1068D800CAEB0303CDF824A08DF82070CDF82880EA
:1068E8000B930E2C00F20785DFE814F0B6040F00B6
:1068F8002100B700980198017D037102CD030505B9
:1069080054048504BA040505DE045846022108AA81
:106918000BF080FB002800F0ED845846042108AAFB
:106928000BF078FB002840F0E68400F0E3BC00217F
:106938000D2204A80CF00EFF9BF876770BF2777106
:1069480007F00F0704A83A460CF0DEFE07F108012D
:106958000BEB010393F86F3703F00F030D2B1E4663
:106968000AD107F109010BEB010393F86F2702F134
:106978000D063F2E11DC01E00E2B0ED05944324695
:106988000BF22F7001F5EE610CF0BEFE00230BEB4D
:10699800060282F82F37012300E000234FF0000998
:1069A8004B4518BF49464FF01006DA448AF86F97EE
:1069B80088F801609BF8723708BF80219BF871271F
:1069C800602088F803100C2188F8053088F8020048
:1069D80088F8042008F102070A4608F106000CF0BE
:1069E800B9FE5846394632460BF07FFA58464146BA
:1069F80012220CF0C7FC4845C0F27C8411AE08ABEB
:106A08000FCB86E80F00CDF840B015AE0FCD0FC6FE
:106A18002B681420DBF8B4763360CDF838900CF08E
:106A280045FE0BF22F78864638B10546CDF854B0AE
:106A380015AE0FCE0FC533682B60A34BCDF830E0F1
:106A48000F93A24B04A80E9341460CAA0023B84703
:106A58000CA8FFF79CFD00F04EBC9BF876870BF264
:106A6800777A08F00F08B8F10C0F28BF4FF00C0820
:106A78004246514615A80CF047FE15AB03EB08003B
:106A8800C8F10D0200210CF065FE4FF0100800233C
:106A98008BF86F378BF87087DBF8C03615A89847E6
:106AA80001281DD1DBF8C43615A898479BF8722732
:106AB80003789BF8711761208BF871078BF874279E
:106AC8004520FF228BF872078BF873178BF87577C0
:106AD8008BF876278BF877370BF5EF6009218AE07A
:106AE800022826D1DBF8C43615A898479BF87227E8
:106AF80003688BF87427FF228BF876271A169BF801
:106B0800711761208BF877271A148BF871078BF8A7
:106B1800782745201A128BF872078BF873178BF8B1
:106B280075778BF879278BF87A370BF27B7006210B
:106B380061E004283BD1DBF8C43615A898478146A4
:106B48000DF03EFBDBF800509BF87237123D854292
:106B5800A8BF05469BF8712761218BF871178BF840
:106B680074374521FF238BF876378BF872178BF82B
:106B7800732749462A468BF8757750460CF0C4FDB2
:106B8800A81D20F00F051035291AC9B20BF271782B
:106B98000A4640440CF0DEFD2A46584641460BF0B2
:106BA800A4F98BF870572D128BF86F572CE0092831
:106BB8002AD1DBF8C43615A89847D0E90023CDE9D7
:106BC80010239BF8721761238BF8741703CDCBF849
:106BD800770748469BF871E78BF8713745238BF8A0
:106BE8007237FF238BF873E78BF875778BF8763756
:106BF800CAF8041002210A460CF0ACFD58460BF204
:106C0800717142460BF071F99BF86F279BF870374A
:106C1800584603EB02223146023267E31022DA4477
:106C280000238AF86F3788F80120099A0BEB0201D4
:106C380091F86E17521A132A1FDD9BF87627FF2A40
:106C48001BD19BF878279BF879370BF27A7043EAC7
:106C58000223ABF8FC390CF0A3FA9BF87E37CBF88B
:106C6800000A8BF8FE3948460CF09AFA9BF87757D9
:106C7800CBF8040ACBF8F8090AE0ABF8FC39CBF8F2
:106C8800003A8BF8FE39CBF8043ACBF8F8390025EE
:106C98000BF6F416DBF880363046012100229847BF
:106CA800B0B9BBF8FC392BB1DBF8002A591E0A44ED
:106CB800B2FBF3F34FF6FE794B458CBF4FF000095A
:106CC8004FF0010906E000BF631F0108A11D01087C
:106CD8004FF00009B9F1000F9BF8723714BF00217B
:106CE80080219BF87127602088F803100C2188F810
:106CF800053088F8020088F8042008F102070A46DF
:106D080008F106000CF026FD5846394610220BF013
:106D1800ECF85846414612220CF034FB0028C0F229
:106D2800E982B9F1000F00F0E68200213046DBF875
:106D380080360A4698470646002840F0DC82DBF891
:106D480094369847BBF8FC39CBF82407ABF82A37B8
:106D58000123ABF828678BF82E3758461D400CF0F6
:106D68002AFA024658B1DBF8000085F00101801AC2
:106D78005844494200F26F70C9B20CF0EBFCBBF802
:106D88001C37512101339BB2ABF81C3788F802102D
:106D980044219DF8202088F80310191288F804105F
:106DA80088F805300921FF2388F8062088F807307D
:106DB8000A4688F8085008F109000CF0CBFC584640
:106DC800394610220BF091F8584641468DE2DBF81F
:106DD800943698470A9D00264FF01008CBF82407F0
:106DE8002E7085F801809BF872379BF87127602117
:106DF800A9700C216B712A71AF1C0A46EE70A81D90
:106E08000CF0A8FC5846394642460BF06EF8584636
:106E1800294612220CF0B6FAB042C0F26B829BF8F7
:106E28002E37002B00F06782B246B0464FF00709B4
:106E38000BEB090393F86F37FF2B24D0BAF1000F3F
:106E48000ED0BAF1010F14D10BEB090292F87017AA
:106E580092F87127D04642EA0122ABF8282708E0C9
:106E68000BEB090000F5EE6003930CF099F9064668
:106E7800039B03F00F03013309EB03010AF1010A35
:106E88005FFA81F9D4E709F10101099BC8B21A1A1E
:106E98005B4493F86E17BBF828E7511ADBF8043AFD
:106EA800BBF82A2789B202FB0E33CBF8F8394FF624
:106EB800FF739E45ABF8FC1900F01C82584400F2A1
:106EC8006F79DBF88C3648469847B0427DD10BF68F
:106ED800F416DBF884363046494600229847B8F164
:106EE800000F03D09BF82E37022B09D0584639469D
:106EF8009DF8202044230BF071F84FF0010801E0C1
:106F08004FF0000858460CF056F9DBF80030BBF893
:106F18002877181A5844FA1000F26F7007F0070320
:106F2800815C012707FA03F30B4383549BF82E3740
:106F3800022B40D1584600210BF03CF94FF6FF7365
:106F48009842814623D1BBF81C374FF000083B44D8
:106F58009BB250228BF82E87CBF82487ABF81C37CE
:106F6800AA700322EA706B711A12B123AB717523F0
:106F78002A71EB712946062258460BF042F942461F
:106F8800DBF88836304639469847B84613E0B8F1FA
:106F9800000F07D05846294612220CF0F3F90028B2
:106FA800C0F2A881BBF8083A4B4502D2584609F00E
:106FB800E7F94FF00008BBF828370133ABF828375A
:106FC800B8F1000F00F097810AE0B8F1000F40F027
:106FD8009281584639469DF8202080230AF0FEFF0A
:106FE8005846294681E100211026DA448AF86F17AD
:106FF800584688F801600BF0DDF84FF6FF75451B21
:1070080018BF0125002D9BF872379BF8712714BF14
:1070180080214421612088F803100B2188F805306D
:1070280088F8020088F8042008F102090A4688F85E
:10703800067008F107000CF08DFB584649463246A9
:107048000AF053FF5846414612220CF09BF90028DB
:10705800C0F250815DB98BF82E57CBF82457DBF876
:1070680088360BF6F41001212A46984743E102239B
:107078008BF82E37584609F083F9DBF89436984791
:10708800CBF8240737E10BEB0A0393F86E375A1E47
:107098000F2A00F23081C3EB0A0A0BEB0A060BF247
:1070A8007573284606F26F7610930CF0B1F8002835
:1070B80000F02181109D05441595159BB34205D319
:1070C8001098B342A5EB000519D323E01A7812F003
:1070D800F00FF5D115A80CF09BF82F232B701599FC
:1070E80005F101088845074603D040463A460CF0AA
:1070F80016FB159B08EB07053B441593DDE71B784A
:1071080003F0F003302B05D115A80CF081F8159B7E
:1071180018441590159BB34208D21A78FF2A05D156
:107128005F1CDA4400238AF86F3700E00027109BC1
:1071380000225A550BF2BC460BF27469336C002BD3
:1071480000F0D980304640210DF042F885420246D1
:107158001CD3DDF84080304641460CF0C5FAA8B98A
:10716800DBF8D4A6BAF1000F0AD1706C336C18B1F1
:1071780041463A46984709E040463946984705E06F
:1071880000903146582042463B46D04758364E4537
:10719800D4D1B0E061219BF872379BF871278BF846
:1071A8007117442100254FF010088BF872170B2136
:1071B8008BF874378BF873278BF86F570A468BF860
:1071C80070878BF875770BF276700CF0C3FA584617
:1071D8000BF2717142460AF088FE58463146122277
:1071E8000CF0D0F8A842C0F28580DBF89036012078
:1071F80029462A462EE061219BF872379BF87127B1
:107208008BF87117442100254FF010088BF872177E
:107218000B218BF874378BF873278BF86F570A4656
:107228008BF870878BF875770BF276700CF092FA02
:1072380058460BF2717142460AF057FE58463146DD
:1072480012220CF09FF8A84254DB284629462A4609
:10725800DBF8903698474EE0DBF8CC3698474AE0A2
:107268009BF876379BF875571B0443EA05659BF82E
:107278007837DBF824072B439BF8775743EA052533
:1072880048B1DBF894369847DBF82437C01A4FF436
:10729800FA63B0FBF3F00021CBF82417DBF898363B
:1072A800281A0A46984726E09BF871179BF8722718
:1072B8000023102560208BF873170C218BF86F378B
:1072C8008BF871078BF872378BF874278BF8705727
:1072D8000A460BF275700CF03DFA58460BF27171C4
:1072E8002A460AF002FE5846314612220CF04AF8A5
:1072F800002800DA0F24029B0F2C1C7027D19BF862
:107308002E370BB90020B0E00021DBF888360BF6E9
:10731800F4100A46984700208BF82E07A5E00028AD
:10732800F0DB9BF82E47DBF89436C4B19847DBF8BE
:107338002437C01A40F6B833984208D99BF82E373C
:10734800022B06D0DBF894369847CBF824070120A7
:107358008BE0584609F014F80028D3D0F2E7984794
:10736800DBF820379BF82C27C01A22B142F21073A1
:107378009842ECD929E043F698239842E7D9BBF81C
:107388001C37402101339BB28BF86F278BF871179C
:107398008BF872270C211A12ABF81C378BF874374C
:1073A8008BF873278BF870570A460BF275700CF040
:1073B800D1F958460BF271712A460AF096FD5846E3
:1073C800314612220BF0DEFF01248BF82C47DBF844
:1073D80094369847CBF82007204646E0642B3FF4C4
:1073E8006FAA762B08BF03240EE0732B07D19BF8F6
:1073F8007737002B14BF0A240B24FFF761BA752BCB
:1074080006D06B2B08BF092418BF0F24FFF758BA02
:107418000624FFF755BA662B3FF452AA09D8632B06
:1074280002D10724FFF74CBA652B11D0452B12D196
:107438000EE0732B02D10424FFF742BA752B02D158
:107448000524FFF73DBA682B05D10024FFF738BAA9
:107458000824FFF735BA0F24FFF732BA12F0300FBD
:107468000CBF0E240D24FFF72BBA1BB0BDE8F08F1C
:107478002DE9F04F042089B00AF082FC8B4E8C4B2A
:10748800DFF860828B4A0127C8F8083037705368E4
:10749800516823F0706321F0706143F08063864C7B
:1074A80051605360E369242043F0C053E361834B88
:1074B8001F6003F043FE4AF2A5539842019615D186
:1074C80024204FF6FF7103F049FE7D4B1A6842F005
:1074D80004021A601A6842F002021A60D8F81030E2
:1074E80043F00403C8F8103030BFFEE7754A0025A2
:1074F8005368754843F440735360A2F54C32A2F5C3
:107508000472D368714943F08073D360704B5D6037
:107518001A6842F001021A606E4BC8F80C30A36971
:10752800804643F00103A361A36943F40063A361A8
:107538000368B3FBF1F399B2674B1A8822F45C72C3
:107548001204120C1A8042F20F729A8519851D8650
:107558009F821A8C22F001021204120C1A841A8CCF
:107568009F88198B22F00E0221F07301090412047E
:1075780027F44077090C120C3F0441F0600142F0F7
:1075880003023F0C9F8019839D861A841A8B22F070
:1075980008021204120C1A831A8C22F01002120428
:1075A800120C1A841A8C9F88198B22F0E00221F49D
:1075B800E6410904120427F44067090C120C3F0441
:1075C80041F4C04142F030023F0C9F8019831D876F
:1075D8001A841A8B22F400621204120C1A831A8C71
:1075E80022F480721204120C1A841A8C9F88998BC8
:1075F80022F4606221F073010904120427F4405751
:10760800090C120C3F0441F0600142F440723F0C37
:107618009F8099839D871A849A8B22F0080212040E
:10762800120C9A831A8C22F480521204120C1A84B7
:107638001A8C9F88998B22F4005221F4E641120497
:1076480027F480470904120C3F0442F48052090CC5
:107658003F0C9F809983A3F840501A849A8B22F498
:1076680000621204120C9A831A8892B242F08002C5
:107678001A801A8892B242F001021A80B3F84420A4
:107688006FEA42426FEA524292B2A3F84420134B87
:10769800A16953F82530AA000B43A361104B33F8B6
:1076A8001530ADF81830FDB910231EE0D2050020C2
:1076B80000500008000001400010024020000E4267
:1076C80000700040002004E08000002040420F00CD
:1076D800001000E00003FA05002C014020700108AA
:1076E8003070010800ED00E018238DF81B30C04B06
:1076F8004FF0030AD05806A98DF81AA0013503F0F7
:1077080054FCBC4B4FF40052042D5A61BFD1A369FD
:107718000DF1200943F00903A36129F80C5D4946DE
:107728004823B5488DF8173003F03FFCB34A4FF0B3
:10773800000B9389012723F010031B041B0C938172
:107748001B238DF8183006A805238DF819308DF8FD
:107758001AB08DF81B7003F00FFD0822062306A847
:107768008DF8182002928DF819308DF81AB08DF81E
:107778001B7003F001FD384606F09EFEA04B342135
:10778800D960D8F800304FF47A71B3FBF1F39D4912
:10779800013B4B609C4BF02083F823000720C1F885
:1077A80008B00860D02183F823106369974E43F02E
:1077B800400363614FF400337361029A06A88DF8A1
:1077C8001D2006938DF81CB08DF81E7003F062FC26
:1077D80048468DF814A08DF815508DF816B08DF820
:1077E800177003F0C9FC292348468DF814308DF82A
:1077F80015A08DF816B08DF8177003F0BDFC844AFB
:10780800B046536813F0020300F0E081136843F0B8
:107818000803136003F078FB7E4A13889BB243F099
:107828000303138003F07EFBEFF3108372B624206A
:1078380003F084FCC0F30F300A2814D062B6764BEC
:107848006FF07F421A6005F0F3FC7D2003F084FBA3
:10785800002800F0EB80714B01221A70636A43F034
:1078680080736362E2E0242003F068FCC7B224203E
:1078780003F064FC4FF6FF71C0F30326242003F0E5
:107888006DFC172FDAD8022ED8D8012E04D0022E7C
:107898000CBF0221002100E00321384609F0AAFDAF
:1078A80018227A43DFF880B100250BEB020191F82A
:1078B80006A05BF802005A4A8B8802EBCA010695BB
:1078C80007950595C8F814304D604B490393431A42
:1078D800584242F83A5058415146029203F050FB40
:1078E800039B029A012E8DF81C500693154603D06F
:1078F800022E03D0102302E0082300E00C238DF8A9
:107908001D3006A801238DF81E3003F0C3FBBAF121
:10791800090F14D8434BBAF1040F13F80A3048463C
:107928008DF814308CBF0E230D238DF815300023ED
:107938008DF8163001238DF8173003F01DFC344AFA
:10794800136823F0030343F0010313602E4B1A69F5
:1079580042F004021A6130BF1A6906A822F0040234
:107968001A61182303FB07B7BB8897F80690C8F875
:10797800143000270693079703F0D0FB45F83970B9
:1079880005EBC9056F60234D2B8823F002031B0408
:107998001B0C2B8003F0C6FA4FF40033C8F81430E0
:1079A800AB8823F002031B041B0CAB80236823F471
:1079B80080332360236823F480232360236843F4FF
:1079C800803323600597312003F0C6FA059B013305
:1079D8000593059BB3F5A06F01D00028F3D03120A3
:1079E80003F0BAFA002840F01981FEF7A9FB00BF9E
:1079F8001070010800080140000C0140002C0140F3
:107A08000020024010E000E000ED00E0000401402A
:107A1800007000400028004070100020740500200D
:107A280084100020387001080C010020242003F085
:107A380085FBC0F30F300A280ED045F25552834B10
:107A48001A6006225A604FF4EA729A604AF6AA222D
:107A58001A604CF6CC421A60019B1B78002B27D089
:107A68007B4B1A887B4B1A807B4B1A887B4B1A807E
:107A78007B4B1A887B4B1A807B4B1A887B4B1A806E
:107A88007B4B1A887B4B1A807B4B1A787B4B1A707E
:107A98007B4B1A787B4B1A707B4B1A787B4B1A708E
:107AA8007B4B1A787B4B1A707B4B1A687B4B1A609E
:107AB800A369032543F00803A361E369784843F405
:107AC8008043E3614FF40053ADF8183018230DEBF1
:107AD80003018DF81A508DF81B3003F066FA4FF445
:107AE80000436F4806A90424ADF8183003F05DFA86
:107AF8004FF480436A4806A9ADF818308DF81B404A
:107B080003F053FA4FF40073654806A9ADF818302E
:107B180010238DF81B308DF81A5003F046FA02F046
:107B280065FC604B60491A8802F4415242F4417284
:107B38001A809A8B22F400621204120C9A8307228C
:107B48001A821A8892B20A801A8892B242F04002C7
:107B58001A8002F08BFB204602F0BAFA02F046FCCB
:107B680002F084FB9F2002F0B3FAFF2002F0B0FA83
:107B78000646FF2002F0ACFA0446FF2002F0A8FAFD
:107B88000546240202F032FC44EA0644474B2C43E3
:107B98009C4202D04C3B9C4254D102F067FB8020AF
:107BA80002F096FA02F022FC02F060FB502002F08C
:107BB8008FFA02F01BFC02F059FB012002F088FA50
:107BC800002002F085FA02F011FC3BE0384A1370FD
:107BD80013701770412003F0BFF90028FAD0236A08
:107BE800012243F480732362324B1A6003F08CF94C
:107BF80003F098F9304A93889BB243F010039380BE
:107C08000023138147F6FF739381938823F01003B1
:107C18001B041B0C938003F085F9FDE5274B01221B
:107C28001A60392003F098F90028FAD0636823F025
:107C3800030343F002036360636803F00C03082B3B
:107C4800FAD1FBE509B0BDE8F08F00BF0030004075
:107C5800004C000870000020024C00087C00002046
:107C6800044C00086E000020064C00086600002046
:107C7800084C00086C0000200A4C00087400002022
:107C88000B4C00087A0000200C4C00087200002001
:107C98000D4C0008730000200E4C000868000020FE
:107CA800000C014000380040140700208D25BF005B
:107CB800201002403C04424200280040600042423A
:107CC8002DE9F04FADF5697DAA4B04AF1C68002380
:107CD800224684F82E37C4F8243752F80C3F04F2B1
:107CE8006F76C4F897375368B860C4F89B379368C1
:107CF8002046C4F89F37314628220AF001FB031EAC
:107D0800FB60C0F2F3849C4B07F5C87215465968AE
:107D18001868083303C599492A468B42F6D1186872
:107D28001B7928602B71D1F805004B7AC7F8F4004D
:107D380087F8F83007F5C87204F2A373154603CD27
:107D4800596007F5D4718D4218602A4603F108037B
:107D5800F4D1286804F24B1118602A7904F5F86008
:107D68001A7180220BF0D0FCD7F8F40004F118083F
:107D7800C4F8400897F8F83007F1580084F84438F8
:107D880041460BF02FFA04F64503FB60D7F8E430C0
:107D9800FD6D53BBE02D2BDDD93D04F64709CB46DD
:107DA800AA4684F84538022384F846381AF1FF3A7F
:107DB80009D30CF06DF9C0B28BF800000028F8D098
:107DC8000BF1010BF2E7002309EB050009F8053078
:107DD8003146D62201300BF097FCF96807F15800BC
:107DE8000A4604F0B3FD814604E0DFF8949101E00F
:107DF800DFF8909107F1580004F078FDB9F1000F11
:107E080040F0F382F9684FF4807220460BF0BAFA1A
:107E1800204631464FF4C0720AF072FA031EFB6026
:107E2800C0F2648449469C2207F1F4000BF092FCEE
:107E38008022C7F8F82094F8493104F5A07513F0AA
:107E4800010F0CBF09230A239946591C294407F13D
:107E5800FC0008F0F6FE09F1880A07F5847006F0C0
:107E680059FA15F80A3007F58A70DA0744BF4B4605
:107E780003F1890A0AF101010AF1820929448022E1
:107E880008F0DFFE15F809304022DB0748BF0AF189
:107E9800830909F10101294407F5907008F0D1FE22
:107EA80009F142039A46EB5C4022D80744BF09F126
:107EB80043039A465346591C0AF14209294407F5D7
:107EC800967008F0BEFE15F809304022D90744BF65
:107ED800534603F1430909F10101294407F59C7050
:107EE80008F0AFFE09F142039A46EB5C07F5A27071
:107EF800DA0744BF09F143039A465346591C2944FB
:107F0800402208F09EFE0AF142016B5C07F5A8705A
:107F1800DB0748BF013101312944402208F091FEB6
:107F2800D7F8F890A9F11003B3F5F87F00F2B780FD
:107F3800012200233A61FA613A6307F110003146E1
:107F48004A467B61BB613B627B627B63BB6308F033
:107F580078FE8246002871D107F1100007F1FC0174
:107F680008F0E1FC00280FDB07F1100008F01EFF05
:107F780095E000BF5C100020F46E01080C6F01084A
:107F8800F0FBFFFF00FCFFFF07F5B473009307F158
:107F98001C0007F1100107F59C7207F5907307F0B4
:107FA80043FE8246002849D107F5BA73009307F1CA
:107FB800300007F1100107F5A27207F5967307F074
:107FC80033FE8246D0BB07F1100007F11C0107F110
:107FD800300208F03BFF824680BB07F11C0007F126
:107FE800100107F5A87207F0E1FB824630BB07F1E4
:107FF800100007F11C0107F5907207F043FC824658
:10800800E0B907F11C0007F1100107F5967207F0B7
:10801800CDFB824690B907F1100007F1300107F156
:108028001C0208F034FF824640B907F1100007F53A
:10803800C871D7F8F82008F046FD824607F110000D
:1080480008F0B4FE07F11C0008F0B0FE07F130009C
:1080580008F0ACFE53461BB1CD4D2B431D4623E023
:10806800D7F88051EDB907F5C8731A78CAB95A78A4
:10807800022A16D107F5C9710A7832B109F1FF321F
:108088001A4491420DD20131F6E701315A1A4A4495
:10809800282A08DC07F130000BF036FB04E0BD4D60
:1080A80002E0BD4D00E0BD4D07F1F40004F01EFCF8
:1080B800002D40F068813621402207F5F6700BF05C
:1080C80049FB07F50B705C2140220BF043FB07F5D9
:1080D800C87307F13002A85C93F85C1093F89C20F1
:1080E800013541404240282D83F85C1083F89C20DC
:1080F80003F10103EDD107F5C8750023DFF8ACC221
:10810800DFF8AC922B606B60DFF8A8B2A44BDFF805
:10811800A8A2284607F5F6714022C5F808C0C7F896
:1081280004C0EB60FB60C5F81890C5F810B0C5F83E
:1081380014A00BF08DF80021142207F1F4000BF0C5
:1081480009FB8022284631460BF082F8284607F1C1
:10815800F4010BF0B5F80023D7F804C02B606B606E
:10816800FB68284607F50B714022C5F808C0EB608C
:10817800C5F81890C5F810B0C5F814A00BF068F849
:108188001422284607F1F4010BF062F8284607F19B
:108198001C010BF095F80021142207F1F4000BF0F4
:1081A800D9FA0021DC2228460BF0D4FA04F2EF7346
:1081B800414607F1F40099460BF014F8D7F8F88017
:1081C800A8F11003B3F5F87F38D8494607F1F40051
:1081D8002A4604F0BBFB8146002833D1D7F880310A
:1081E80073BB2B7863BB6B78012B29D107F5C97357
:1081F800197841B108F1FF322A44934220D2FF296D
:108208001ED10133F4E7581C2A1A4244222A0AD103
:108218009973122263490BF067FA634B5E4A002890
:1082280008BF13460DE0142A0AD107F11C010BF010
:108238005BFA5D4B002808BF002302E0554B00E0C5
:10824800554B994607F1F40004F050FB4B46002BC0
:1082580040F09B8007F1300C04F2E4639846E64650
:1082680007F140096346424603CB08324B45C8F83C
:108278000000C8F804109C469046F3D1C84604F2A2
:10828800F46C07F15003424603CA9A42CCF8000046
:10829800CCF8041090460CF1080CF4D1C84604F24E
:1082A800047C424603CA9A42CCF80000CCF8041079
:1082B80090460CF1080CF4D103CBC4F81407C4F8A9
:1082C80018179EF820209EF8213043EA0223A4F8CC
:1082D8001C379EF8223084F81E37D7F853002860E0
:1082E800A36828680BB1984701E00BF0A9FE0023AA
:1082F800FB60D4F8C8369847B4F81C374FF0500ED6
:1083080001339BB284F871E74FF0020EA4F81C37D2
:1083180084F872E784F874374FEA232EB123B4F84F
:10832800F01984F875376823B4F8F22984F8763799
:10833800FF2384F877370B1284F87837131284F800
:108348007A373B7B84F873E784F87C3784F87E3788
:1083580084F87F3784F8791784F87B2784F87D07B9
:1083680031460F22204609F04CFF204631461222A2
:108378000BF008F8031EFB60C0F2B881D4F89436FD
:10838800984706461AE00623B4E10823B2E100BF85
:10839800B0FBFFFF00FCFFFFF0FBFFFF90FBFFFFC0
:1083A80089ABCDEF166F0108A0FBFFFF01234567DE
:1083B800F0E1D2C3FEDCBA98765432102046294642
:1083C800FEF7D6F958B12B784BB1D4F894369847C4
:1083D800801BB0F5FA6FF1D34FF0FF338AE180F0DC
:1083E8000103DBB25B42FB6001E0C7F80C90FB685D
:1083F800002B40F07B813B7BC64C07F5C8710A22F5
:108408004FF4D83087F8903105F044FF07F5C8716C
:108418002278C14805F022FF07F5C8710A224FF4F7
:10842800007005F037FFBD4807F5C871227805F0E0
:1084380015FFBB4B25461B78042B04D1B948BA4914
:10844800227805F00BFFB94E07F1F4040022B16859
:1084580040F2072002F027FA40F20720214602F0F6
:108468002FFA227994F80080E37807F5C870009213
:108478004021AF4A0EF0C2FCB146B8F1000F04D15A
:1084880097F89031002B40F03781BB68002B7CD0E7
:1084980002200146112205F0DDF80728E8460646C5
:1084A80072D81022002120460BF054F9D9F8089010
:1084B8000223238007F158054FF0FF3309F1090023
:1084C80031462B6002F099F90023082202700271EC
:1084D80043708370C370437183718218C371E15C08
:1084E800D1540133082BFAD11422494641F2020033
:1084F80002F0D9F941F20200294602F0E1F90BF045
:10850800CBF82B6803602B68002B3ADB0C2107F1B2
:10851800300006F0BFFC50232370B1232371682379
:108528006371FF23A3714FF0000E022207F130039D
:1085380003CB627084F802E084F803E0C7F8FB001C
:1085480018681623AB703323EB70E0232B710123DB
:10855800C7F80301AB713046BB23EB71C7F8FF10B6
:108568002A8085F805E005F0A5F8034648B91022E9
:10857800019283220292009530462146132204F08C
:10858800CBFF304605F040F8C5466A4B98461C6854
:1085980004F2BC4504F274692B6C002B6AD095F880
:1085A8004930002B60D0B4F81C37402201339BB20D
:1085B80084F871270122A4F81C3784F8722784F8FC
:1085C80074371A12B12384F87537652384F876371F
:1085D80084F8732728463F210BF0FAFD04F2777BD5
:1085E80002462946584609F069FC05F149060BEB95
:1085F800000338603F2130467B60BE600BF0E8FD29
:1086080006467B68D7F800C0BA680133FF210BF82B
:108618000C101846114632460BF076F804F2717ABF
:108628003044CAEB000020F00F0B0BF11006F3B238
:10863800191AC9B220440A4600F27170BB600BF0E7
:1086480089F820465146324609F04FFCBB68360A85
:1086580084F86F6784F87037204604F26F710BF165
:1086680012020AF08FFE05E02046294695F84820B8
:1086780009F0E3FD58354D458ED1D8F8004094F8FF
:108688002E3783BBB4F81C3794F81E2741210133D9
:108698009BB284F871170121A4F81C3784F872176B
:1086A80084F8743719120132B123D2B284F87637BC
:1086B80004F26F75742384F81E2784F8731784F8FE
:1086C80075272946072284F87737204609F099FD4F
:1086D800D4F89436064698472946C4F82407324603
:1086E80020460AF04FFE06F087FB0CE0FB680D2BD6
:1086F80008BF0023FB6006E007F5C8712A780E481A
:1087080005F0ACFDC1E6F86807F56577BD46BDE83C
:10871800F08F00BF601100204870010862700108E6
:108728005410002080700108F2730108B40700207B
:10873800967001085C1000209C70010820B9034B5A
:1087480008221B681A8270470148704754070020A6
:108758006007002020B9034B08221B681A82704763
:1087680001487047540700206007002021B90128FC
:108778008CBF0220002070470220704710B50A4BBA
:108788001968CA78042A0CD84C8A084B28B903EB14
:10879800C2039B881B1B0B8210BD53F8323018197B
:1087A80010BD002010BD00BF54070020E070010874
:1087B800054B1A68538A18B9C3F1430313827047EB
:1087C80002481844704700BF540700200071010890
:1087D800054B1A68538A18B9C3F1120313827047FC
:1087E80002481844704700BF5407002075710108FB
:1087F800074B1B681B7803F07F03212B06D100F081
:10880800DF00022814BF02200020704702207047B2
:1088180054070020212810B508D1114B1B681B787C
:1088280003F07F03212B10D0022010BD2028FBD19C
:108838000B4B0C4A1B681B78107003F07F03212B2D
:10884800094B18BF00230BB9EEE7084B044A002474
:1088580012682046936154829847204610BD00BF95
:108868005407002075050020458700085D8700082B
:108878002DE9F0438DB01F469DF8503006460D4651
:108888009046032B00F23981DFE803F00239C0C0BB
:108898009C4B00249F6814237B737C72BC72FC720F
:1088A8003C73BC73FC733C7407F111000494ADF87D
:1088B800144001F0A2FF034603F8024B447004AAD7
:1088C800A25C1A550134062CF9D100F10C010A46B4
:1088D80001230372002343728372C372531A1BB2BB
:1088E800AB4203D2F35C02F8013BF7E705F118024B
:1088F80092B2002A00F0F38005203946E8E000240F
:108908000DF110094846214620227F088DF80240C3
:108918000AF020FFBC4208F1020810D218F8023C05
:1089280068468DF8003018F8013C002110228DF8B7
:1089380001300CF0C5FB09F804000134EAE7714B7B
:108948000024D3F8088001230294ADF80C4088F87D
:108958000930202388F80D3088F80A4088F80B4041
:1089680088F80C4088F80E4088F80F4088F81040C6
:1089780008F11100294601F040FF034603F8024BB5
:10898800447002AAA25C1A550134062CF9D10024BD
:108998000123037244728472C47205F10C010C3015
:1089A80001F02BFF394601F028FF011D0A4604702B
:1089B80044708470C470531A1BB2AB4203D2F35C88
:1089C80002F8013BF7E70024042011468B1A1BB27A
:1089D800BB4207D20CAE3344234413F8203C01F8C1
:1089E800013BF3E701380A463C44EED105EB870228
:1089F800243292B242B141460520D2B201F053FF6F
:108A0800052001A901F05CFF019B69E03D4B0024B2
:108A1800D3F80890032389F80930282389F80D3002
:108A280089F80A4089F80B4089F80C4089F80E400B
:108A380089F80F4089F8104009F111000494ADF845
:108A4800144001F0DAFE034603F8024B447004AA0E
:108A5800A25C1A550134062CF9D11822027301239D
:108A68001E22037202740023022243728372C372AD
:108A780043738373C37343748374C3744375837577
:108A8800C375027505F10801183001F0B6FE3946C4
:108A980001F0B3FE03461A1A12B2AA4203D2B25C1C
:108AA80003F8012BF7E71946B8F1000F07D107F1D2
:108AB8002C022A4492B292B10520494608E0CA1A0B
:108AC80012B2BA42F3D218F8022001F8012BF6E7E5
:108AD800D2B201F0E8FE052002A901F0F1FE029BE6
:108AE8005A1C1EBF084A013313700E2001210022B0
:108AF800054B01F00DFF002001E04FF0FF300DB0F5
:108B0800BDE8F083B40700206807002070B53B4D2E
:108B180086B0A968FF234B7206AC00234FF0FF36DE
:108B28008B72CB720B73042244F8046D062001F09B
:108B3800BAFE2146062001F0C3FE059C002C59D13F
:108B480021460E2001F0C4FE10210E2001F0C0FEC7
:108B5800214610222A480AF0FDFD22461021284B02
:108B68000E2001F0D5FE0394A9689DF80C300594F9
:108B78004B729DF80D3002948B729DF80E30049460
:108B8800CB729DF80F304C750B739DF808308C75BF
:108B98004B739DF80930CC758B739DF80A308DF8AE
:108BA8000760CB739DF80B3014220B749DF81030BE
:108BB80042F201004B749DF811308B749DF812300D
:108BC800CB749DF813300B750C769DF814304B76EA
:108BD8009DF815308B769DF81630CB769DF81730BA
:108BE8000B7701F060FE42F201000DF1070101F080
:108BF80067FE00E00124204606B070BDB4070020DF
:108C08006807002038B50B4C0020A36A9847E36931
:108C1800084D98470028FAD0AB680BB10023AB6029
:108C2800636A9847A36A00209847034B00221A6199
:108C380038BD00BFB40700200410002010B58379A8
:108C4800044613B103685B6D9847E379012B0BD198
:108C5800E37A012B08D1637A012B05D123682046DA
:108C68001B6E98470023E37110BD0000054B1A786E
:108C780002F0FF0322B1807A003018BF012070474C
:108C8800184670474E1000202DE9F0470368044647
:108C98009B6B89469847002848D1236820465B6922
:108CA8009847002842D1236820461B6B9847054601
:108CB80000283BD12368DFF8908029469B6820462E
:108CC80098F800609847236825715B6E204698479E
:108CD800174B01271F7088F80050236820461B6C2B
:108CE8009847F6B2014660B9B9F1000F05D023687C
:108CF8002046BDE8F0479B6A1847BEB123681B6A47
:108D080010E00C4B4FF47F421D700B4BA7721A609A
:108D18000A4B1A680A4B1A6047F23052094B1A601C
:108D280023689B6E2046BDE8F0471847BDE8F087EA
:108D38004E100020580300207010002070110020F1
:108D480058100020481000201F1000200079003023
:108D580018BF0120704700207047012005F0F0BBC4
:108D680008B505F011FCBDE80840002005F0E8BB97
:108D780013B5002005F0E4FB02AC4FF0FF3344F8D4
:108D8800043D084B00229968022001F08CFD214621
:108D9800022001F095FD0AF07FFC019B036002B000
:108DA80010BD00BFB4070020F7B51E4D012385F89C
:108DB8004030AF6802AC4FF0FF3607F1090048F2C7
:108DC800042144F8046D01F018FD394604220820F6
:108DD80001F069FD2146082001F072FD44F6206289
:108DE800AD68114B05F109004FF461511A608DF817
:108DF800046001F002FD4FF4616101F0FEFC0A21FC
:108E080001F0FBFC002101F0F8FC2946142242F293
:108E1800090001F048FD42F20900214601F050FD29
:108E280003B0F0BDB4070020A807002008B5012151
:108E3800024A0E2004F036FA002008BD6807002018
:108E4800F7B5214C00252368057301212046DB690D
:108E58009847236820461B6A9847236820469B68E2
:108E680001219847194E10210C2001F031FD2A46A6
:108E78001021174B0C2001F04BFDB168154A542303
:108E880002AC4FF0FF3744F8047D137053709370B1
:108E98004B728B72CB7203220C2001F004FD214629
:108EA8000C2001F00DFDB1680123019704224B72DB
:108EB8008D72CD720D730A2001F0F5FC0A2021464F
:108EC80001F0FEFC03B0F0BDA0110020B4070020A3
:108ED80004860108620000202DE9F0410646AEB084
:108EE800002934D01E4C0D204321224604F0DAF923
:108EF80043282CD1277802A8FD1C04EB050804F0B0
:108F080001FA404602A904F027FC237823445B7841
:108F1800102B07D902A804F0F5F908F1100002A9EE
:108F280004F01AFC98F81F301BB1635D1F2B04D1A5
:108F380000E0635D08F1010800E02023217809487A
:108F48000C44A278394600924246FFF791FC3368F8
:108F58003046DB68002198472EB0BDE8F08100BF9D
:108F680076050020770500202DE9F041074688B0F6
:108F7800154698460C4619B90123BB73002021E019
:108F880020260021324668460AF0E4FB2046009677
:108F9800019403950BF014F9029028460BF010F990
:108FA8000E9B04908DF815309DF83C308DF8148098
:108FB8000BB1012307930548694603685B6C984722
:108FC8000028D9D008B0BDE8F08100BFA01100206A
:108FD80070B5134B04461A780E461D46F2B1036865
:108FE8001B6A9847236820465B6F98470D4B012200
:108FF8001A7016B10C4B00221A7000230B4A2B7002
:10900800E3726372A3720123A3731370084B6FF0AA
:109018007F421A60BDE8704004F00AB970BD00BF15
:109028004E1000201F1000204C0300205803002081
:1090380070100020F8B50E4D04462B780E4603F04C
:10904800FF07A3B903689B6C9847236820461B6FEA
:109058009847084A01232B701770074A137036B1D6
:10906800064BFF221A60BDE8F84004F0E1B8F8BDED
:109078004E1000201F100020580300207010002000
:1090880010B50B4B04461B788BB1002301202071CF
:10909800A3726372E37205F0C9FC23682046DB6E95
:1090A800984723682046BDE810409B6C184710BDC0
:1090B8004E1000200E4B10B91A78BAB901200428B6
:1090C800187013D8012303FA00F212F0130103D128
:1090D80012F00C0F06D17047064A1370064B002297
:1090E8001A707047034A1170034A1370704700BF23
:1090F800541000204C0300201F10002010B5044617
:10910800006808B10AF0DAFA204610BD2DE9F74FD9
:10911800804689469A46124B93465A680C9D0D9F85
:109128001C680192019B9C4210D0D4E9002302EAFA
:10913800080003EA090150EA010305D04046494600
:109148005A465346A668B0471034EBE72DB1384667
:109158002B4603B0BDE8F04F184703B0BDE8F08FC9
:109168004C1100202DE9F0413424ADF5816D2246E3
:1091780003A800210AF0EEFA464BADF80C40049320
:10918800454B3C240593454B01270693444B224607
:109198000893444B10A80993434B00210793434B72
:1091A8008DF80E700A93424BDFF844810B93414BC4
:1091B8000C930AF0CFFA404B69A811933F4B4FF438
:1091C800005112933E4B4FF4197213933D4B109478
:1091D80014933D4B03AC15933C4B16933C4B1793A0
:1091E8003C4B18933C4B19933C4B1A933C4B1B93A9
:1091F80001F037F91FA84FF493724FF4805101F032
:1092080030F968460C2105F045FED8F800601FA922
:1092180006F118004FF494720AF076FA69A906F577
:10922800A0704FF419720AF06FFA6B4603CB3161E4
:10923800F060186806F2746570610FCC0FC50FCC2A
:109248000FC50FCC0FC5236810AC2B6006F5D5658C
:109258000FCC0FC50FCC0FC50FCC0FC594E8070076
:1092680085E8070006F2BC4000214FF4DC720AF0E2
:1092780071FA3A4686F82D771A491B4807F012F812
:10928800D8F8003008229A80184A9A600DF5816D46
:10929800BDE8F08125ED0008BDEB000805E70008F2
:1092A8009DE90008392C010839E60008092401085D
:1092B8003D1A01085DEB0008D1EA0008BDEA000884
:1092C80059230108B1EA00089DEA000879EE000870
:1092D800E5230108D90E0108510F0108D1C900087A
:1092E80079ED000861EB00088B71010800000000AF
:1092F8005C1000202DE9F3410D4617462449044629
:10930800FDF702F82F44BD423DD02B78A6681B0913
:1093180003F13002392A06F1010688BF03F157022A
:10932800204600233146A8468DF804208DF80530E4
:10933800FCF7B8FF30B12068A36801A918440DF004
:109348008FFDA66098F80030A66803F00F0303F1BC
:109358003002392A06F1010688BF03F15702204678
:109368000023314601358DF804208DF80530FCF7CF
:1093780099FF0028C7D02068A36801A918440DF0F8
:109388006FFDA660BFE7204602B0BDE8F08100BFD0
:10939800F27301082DE9F04F9E499F4E0B689F4AD2
:1093A8009BB233803388108885B0034013F4007F64
:1093B8008846914664D04FF6FF53994A0B6013785C
:1093C8000133DBB21370974B1B68052B58D1964BB2
:1093D8001A68052A02F1010101D0196050E0934C86
:1093E80000221A602378012B4AD0914B90481968C3
:1093F800B1F5807F08BF1A608E4A1D6811688D42DA
:1094080001D100233BE0056811688D4296BF1268C0
:1094180002680068884994BF121AC2F580720A600F
:10942800096818684029844A80B207D91968402514
:10943800403119601368403B136007E015681168F4
:109448001F68ADB239441960002313607B4B2A466C
:109458001844C02101F01EFC0120294601F00AFC35
:10946800774A136823F4E04323F040039BB283F068
:10947800300343F4004343F0800313600123237057
:109488003388B9F800201340180440F12B830023D7
:10949800ADF80A30D8F800305F499AB21D0432801E
:1094A80040F120830B88674C03F00F032370002BD7
:1094B80040F0EA82644A654C1368654D9BB223808C
:1094C800238803F030032B80238803F44053238040
:1094D8004BF6BF731068034083F4005383F02003F6
:1094E80043F4004343F0800313600B88D90624D467
:1094F80048F60F731168574F0B4013603B681A7A90
:10950800022A01D0042A04D101F014FC3B681B7A1A
:109518004CE1062A71D15A78052A09D11A785206DF
:1095280006D1D87801F0CCFB4B4B1B681B6A9847D7
:109538004A4B1B689B6898475FE013689BB2ADF87D
:109548000A30BDF80A301F0540F1018240F68F73DA
:109558001168404F0B40424913600A68414B92B270
:1095680013443A685B00107A1B68092801911AD0E5
:109578009BB25B0003F1804303F5C0431978117077
:1095880059783A6851709A883968D0B2120A42EA12
:1095980000224A801A893968D0B2120A42EA0022A7
:1095A8008A809B89CB803B6801221A72DA88DFF8AF
:1095B800A4B093F801A0002A40F0FA801A7812F0BB
:1095C8007F0274D1BAF1090F10D1DA78012A00F2BA
:1095D800D5809978002940F0D1809988002940F0F9
:1095E800CD809A721C4B1B685B68C5E0BAF1050F09
:1095F8003AD193F90320002A01DA0823D6E09A78B1
:10960800002AFAD19A88002AF7D19B7A002B00F019
:10961800BF80F2E7445C0040CC0500201211002016
:10962800C505002038070020BC05002013070020CE
:1096380034070020C805002040070020130600203A
:10964800045C0040C4050020005C00405007002076
:109658005C07002054070020580700201411002040
:10966800505C004004300020BAF1030F0ED1DA78C4
:10967800012A40F083809A88002A7FD15A7A42F0E2
:1096880020025A72984B1B68DB6975E0BAF1010F2A
:1096980074D1DA78012A71D19A88002A6ED15B7A5E
:1096A80098066BD501F0A2FB002871D066E0012A6C
:1096B80020D1BAF10B0F61D18C4A58791268D97848
:1096C80092699047DBF800309A7A002A56D0002831
:1096D80054D11A79002A51D19B78002B4ED1824B54
:1096E8001B68DB689847DBF800305A79DA72DA7859
:1096F8001A734DE0022A41D1BAF1010FD2D0BAF162
:10970800030F3BD1587920F0800E4FEA8E0202F108
:10971800804101F5B841096810F0800F14BF01F0CD
:10972800300101F44051BEF1030F27D8B3F802E02D
:10973800BEF1000F22D109B39B7AFBB102F180423E
:1097480002F5B842136801064BBF23F4E04323F443
:10975800804323F0400323F070034BBF9BB29BB2BE
:1097680083F0100383F4805343F4004343F08003F1
:1097780013605D4B1B689B69984709E05B4B50463B
:109788001B685B69984703280FD000287FF435AF22
:10979800019B1A68564B92B213445B001A68002268
:1097A8001A6030232B80062300E009233A6847E13A
:1097B800BAF1060F13D11A7852067BD19A784B4B1F
:1097C800012A02D11B68DB6969E0022A02D11B6801
:1097D8001B6A64E0032A6DD11B685B6A5FE0BAF11B
:1097E800000F39D15988002964D15A6822F47F4280
:1097F800B2F5003F5ED11A7812F07F0204D19B883F
:10980800002B00F0BF8155E0012A0AD1374A587968
:1098180012689269904700284CD1DBF800309B7A97
:1098280016E0022A46D15A7902F00F018B0003F1A3
:10983800804303F5B8431B6812F0800F14BF03F090
:10984800300303F44053032934D812F0700F31D198
:10985800002B40F097812DE0BAF1080F04D11B7856
:109868005B0600F0918125E0BAF10A0F22D11A783F
:1098780002F07F02012A1DD19A7ADAB15988C9B952
:109888005A6822F47F42B2F5803F13D1174A5879BB
:10989800126892699047002800F078810AE04BB17D
:1098A8003A684FF0000AA2F812A093615046984710
:1098B80050460AE00D4B3A681B6850781B69984778
:1098C800032802D10B4B1B6805E04FF6FF713B687C
:1098D8001A8A8A4201D1092203E0022800D05AB923
:1098E80008221A72ADE000BF5807002014110020AA
:1098F800023000205407002093F90010002920DAD4
:10990800D988A54F03910398824202D9039A1A82F3
:1099180010E08A420ED2396891F82C00824201D2B6
:10992800002105E092FBF0F100FB112212B90121A0
:109938009A4A11703A6892F82C209A8201F0FAF942
:109948007FE003221A724FF44053238079E0BDF878
:109958000A301BB2002BBFF69DAD40F68F7311681D
:109968000B4013608E4A176892463B7A022B64D0EC
:10997800042B62D0032B01D0052B58D1BB693A8A3E
:1099880063B93B8A002B36D000204FF44053014680
:10999800238001F06FF930232B802CE0002AF0D0CF
:1099A800B7F814B0934528BF93461FFA8BF21046B8
:1099B80001929847019A3B8A0BF1010B9B1A3B8253
:1099C8007B8A4FEA6B0B13447B82764B00211A6823
:1099D800754B92B213445B001B689BB203F10053B2
:1099E80003F540535B005945CBD053F8212020F8AC
:1099F80011200131F7E7BB8A3A8A9342DAF800303E
:109A080001D8032201E012B105221A720BE00621E7
:109A18001972644B1968654B89B20B445B0019686D
:109A28001A6030232B80DAF800301B7A06E0072B07
:109A380003D1594B1B68DB6898470823DAF80020E4
:109A4800137201F059F95A4B1A684BF6BF73134059
:109A58002288D704228848BF83F4805390042A8838
:109A680048BF83F40053D1062A8848BF83F0100307
:109A7800920648BF83F0200343F4004343F0800379
:109A88004B4A9BB213602DE09A0002F1804202F526
:109A9800B842116889B2ADF80A10BDF80A1009B2C7
:109AA800002909DA40F68F711068013B0140116006
:109AB800404A52F823309847BDF80A301F067FF510
:109AC800E9AC48F60F712278930003F1804303F55F
:109AD800B8431868013A01401960374B53F82230EF
:109AE8009847D7E43388B9F8002013405C0505D5BA
:109AF8004FF6FF33C8F8003007F0A2FF3388B9F8F3
:109B080000201340980444BF4DF6FF73C8F8003096
:109B18003388B9F800201340D90406D54EF6FF73F0
:109B28000020C8F8003001F06DFB3388B9F8002038
:109B380013401A0518D5214B1B7873B1204A1368B6
:109B48009BB243F00803136013689BB243F004030D
:109B580013601C4B03221A6002E0022001F052FB42
:109B68004FF2FF73C8F800303388B9F8002013406B
:109B7800DB050DD54FF6FF630720C8F8003001F06C
:109B880041FB05E0104B8BE6104B89E6104B87E64E
:109B980005B0BDE8F08F00BF141100204C0700206D
:109BA80054070020505C00400430002002300020A0
:109BB800005C0040B0710108947101086500002044
:109BC800405C004038070020F1A60008A5A700085F
:109BD80081A7000870B5324B324D1A681968287A87
:109BE800C2F340420338C1F34031052841D8DFE8C9
:109BF80000F03A403A400328002A50D000294ED0BD
:109C08004FF408325A6008232B722B69B3F80340CB
:109C1800C4F3072343EA0424A4B2002C3FD0E2078C
:109C28005CBF0134A4B2B4F5806F02D90A2006F0F3
:109C380053FC002029692246BDE87040034600F025
:109C48007DBB61B34FF408325A60174B4FF48072F2
:109C58000220C3F88420014608F0EAF82B68286936
:109C6800BDE870401847D2B1104B1B891B0605D5BB
:109C7800FAE70B20BDE8704006F02EBC084B4FF405
:109C880008325A602B7A032B03D1064B05221A722D
:109C980070BD02200146BDE8704008F0C9B870BD2B
:109CA800000002400410002000E100E000380040FD
:109CB80008B5134A938812889BB290071ED5990756
:109CC8001CD505F0F5FB0F4B4FF400325A61A3F594
:109CD80014435A68D2070CD401F024F9084A93882F
:109CE80023F002031B041B0C9380BDE8084001F01D
:109CF80019B91A6842F004021A60EDE708BD00BFFE
:109D0800002800400004014008B50A4A93881188D9
:109D18009BB2C9070DD5DB070BD5938823F0010348
:109D28001B041B0C938007F041FBBDE8084001F0C1
:109D3800F9B808BD0028004008B5164B1B6803B1E8
:109D48009847152005F076F913480221162207F0E6
:109D580034FAF0B910480421172207F02EFAC0B9D6
:109D68000D480821182207F028FA90B90A4810214E
:109D7800192207F022FA60B9074801211A2207F0D0
:109D88001CFA30B9BDE80840034840211B2207F0FF
:109D980014BA08BDC00500200008004010B5104BDB
:109DA80010491A68104B92B213445B001B680F4AA3
:109DB800C3F309031380138800229BB201335B109D
:109DC8009A4206D051F8044B094820F81240013253
:109DD800F6E7084B01221A70074B00221A8010BDC3
:109DE800505C0040206200401E30002044070020E4
:109DF800D3050020CE050020D0050020034B4FF4EA
:109E0800807208B11A6170475A617047000C0140AE
:109E1800024B9868C0F3C020704700BF000C014097
:109E280038B51C4A1378012B32D11B4B196809B974
:109E3800117038BD194C1A682068402A80B207D9B9
:109E480022684025403222601A68403A1A6007E0CA
:109E58001D681A682168ADB20A44226000221A609F
:109E68000F4B2A461844C02100F014FF0120294650
:109E780000F000FF0B4A136823F4E04323F040038B
:109E88009BB283F0300343F4004343F08003136034
:109E980038BD00BF1307002040070020340700200A
:109EA80013060020045C004007B5084B4FF480728D
:109EB800C3F884204FF400630093684600238DF8AC
:109EC800063001F02BF903B05DF804FB00E100E077
:109ED80030B5194A85B093694FF4006443F009031B
:109EE80093616946482315488DF80330ADF8004062
:109EF80001F05BF80B21012001F042F8104B00251E
:109F08005C6102A802940C2301248DF80D308DF8B1
:109F18000C508DF80E4001F0BDF8282301A88DF8EB
:109F280004308DF805408DF806508DF8074001F093
:109F380023F905B030BD00BF00100240000C0140FD
:109F4800000401404FF6FB72074B19680A401A607B
:109F5800064A917A064A09B1052100E001211160FB
:109F68004FF43F421A607047405C004018070020D9
:109F78003807002000B5BFF35F8F0A4B1A6872B12B
:109F8800BFF35F8F002253E8001F814204D143E8EA
:109F9800002EBEF1000FF6D1BFF35F8FEBD15DF855
:109FA80004FB00BF3C070020BFF35F8F0A4B1A6811
:109FB80082420FD0BFF35F8F53E8002F002A03D1EE
:109FC80043E800010029F7D1BFF35F8F0CBF0120E0
:109FD80000207047012070473C070020384B82B0B2
:109FE8001A6842F001021A605968364A0A405A60F3
:109FF8001A6822F0847222F480321A601A6822F4F5
:10A0080080221A605A6822F4FE025A604FF41F0236
:10A018009A600022009201921A6842F480321A6013
:10A028001A6802F400320192009A01320092019AF1
:10A038001AB9009AB2F5A06FF2D11A6812F4003278
:10A0480018BF01220192019A012A05D01E4B4FF038
:10A0580000629A6002B070471C4A116841F0100112
:10A068001160116821F003011160116841F00201CB
:10A0780011605A685A605A685A605A6842F4806295
:10A088005A605A6822F47C125A605A6842F4E812FC
:10A098005A601A6842F080721A601968084A890181
:10A0A800FBD5516821F003015160516841F002016C
:10A0B80051605A6802F00C02082AFAD1C6E700BFBC
:10A0C800001002400000FFF800ED00E00020024010
:10A0D800064B1A899107FBD580B298811A89D20755
:10A0E800FCD5024B9889C0B2704700BF00380040C9
:10A0F80037B5494B1B78002B00F08C80474C484BF8
:10A108004FF43020636003F1883363603423E360E5
:10A1180000F093FF042812D123694FF4302043F054
:10A12800020323613F4B6361236943F040032361CA
:10A1380000F083FF41F6FD73226913402361042870
:10A14800FDD1394B3748198800F088FF0428FDD124
:10A15800364B3748198800F081FF0428FDD1354B6C
:10A1680000F1006000F59840198800F077FF042896
:10A17800FDD1314B3148198800F070FF0428FDD11A
:10A188002F4B3048198800F069FF0428FDD12E4B69
:10A198002E4819782E4B1B7843EA012100F05EFF08
:10A1A8000428FDD12B4B2C4819782C4B1B7843EAFB
:10A1B800012100F053FF0428FDD1294B4FF4005032
:10A1C8001D680023019300F038FF04281BD1134CAD
:10A1D800244A23694FF4005043F001032361ABB2D2
:10A1E800138000F02AFF042808D11F4B2D0C01937F
:10A1F800019B4FF400501D8000F01FFF41F6FE73D5
:10A208002269134023610428FDD1044A136943F0ED
:10A218008003136103B030BDD20500200020024046
:10A2280023016745004C0008700000207C000020D6
:10A23800024C00086E00002066000020064C000852
:10A248006C000020084C00087A0000200A4C000826
:10A2580074000020730000200C4C000872000020DD
:10A26800680000200E4C0008104C000808B50220B9
:10A27800FFF79AFE0028FAD0084A138823F0400313
:10A288001B041B0C1380064B1B889BB243F0400336
:10A298001380044B4FF400725A6108BD0038004027
:10A2A80014070020000C014030B51F4C01286369D9
:10A2B80043F00103636117D14FF6FE701B4B1C6816
:10A2C800204018601A4C0020186058609860D860C8
:10A2D800606840F470406060186820F4FF4020F027
:10A2E800700040F4425018E0E0B94FF6FE74114B8C
:10A2F8001D682C401C600E4C186058609860D8602F
:10A30800606840F470206060186820F4FF4020F016
:10A31800700040F4425040F0100018605A60064A3D
:10A328009A60D96030BD00BF00100240440002406E
:10A3380000000240580002400C3800402DE9F04768
:10A3480017461C468246894607F0AAFD4FF6FE735B
:10A35800224E234D32688046134033604FF6FE7319
:10A368002A68BFB213402B600120BAF1000F06D152
:10A3780049463A46FFF798FF50461A4906E01A4BF5
:10A388003A461969FFF790FF494600203A46FFF719
:10A398008BFF2B6843F002032B60336843F0010303
:10A3A80033602B6843F001032B609CB1EFF31080FE
:10A3B80072B60D4C257A07F00CFDEDB2A845234680
:10A3C80002D16269002AF1D05869B0FA80F04009D8
:10A3D800BDE8F0872046BDE8F08700BF4400024092
:10A3E8005800024075000020041000200E4B4FF466
:10A3F800007210B502201A61FFF7BCFD07F050FD8E
:10A408000A2810D10120FFF7CFFD60B101210720F4
:10A4180007F00EFDBDE81040044B00201969052225
:10A428000346FFF78BBF10BD000C0140041000204D
:10A4380008B5FFF71BFF0520FFF74AFEFF20FFF7CF
:10A4480047FEC307FAD4BDE80840FFF7CFBF08B5F9
:10A45800FFF70CFF0620FFF73BFEBDE80840FFF7BB
:10A46800C5BF70B50E4615460446FFF7FFFE03202C
:10A47800FFF72EFEC6F30740FFF72AFEC6F30720B4
:10A48800FFF726FEF0B2FFF723FE2544AC4205D0C5
:10A49800FF20FFF71DFE04F8010BF7E7BDE8704049
:10A4A800FFF7A4BF38B504460D46FFF7D0FFFFF706
:10A4B800DDFE0220FFF70CFEC4F30740FFF708FE9D
:10A4C800C4F30720FFF704FEE0B2FFF701FE2846B9
:10A4D800FFF7FEFDFFF78AFFBDE83840FFF7A8BF8A
:10A4E8002DE9F843CB0706460C46154607D5471C09
:10A4F80008463178FFF7D6FF3E460134013D35F076
:10A50800010841D0B146FFF7A2FFFFF7AFFEAD202B
:10A51800FFF7DEFDC4F30740FFF7DAFDC4F30720B9
:10A52800FFF7D6FDE0B2FFF7D3FD19F8020BFFF7EE
:10A53800CFFD7078FFF7CCFD4F46FFF757FFFFF7C9
:10A5480077FF0237C7EB080319EB030F11D0FFF7AA
:10A558008DFEAD20FFF7BCFD17F8020CFFF7B8FD24
:10A5680017F8010CFFF7B4FDFFF740FFFFF760FF96
:10A57800E7E7FFF73BFFFFF779FE0420FFF7A8FDA9
:10A58800FFF734FFC8EB05053DB108EB040016F8EA
:10A598000810BDE8F843FFF785BFBDE8F88310B59C
:10A5A8000446FFF754FFFFF761FE2020FFF790FDF8
:10A5B800C4F30740FFF78CFDC4F30720FFF788FDBD
:10A5C800E0B2FFF785FDFFF711FFBDE81040FFF788
:10A5D8002FBF00002DE9F84305460E4607F060FC42
:10A5E80010B1012805D031E0012007F0F9FB00285F
:10A5F80070D00121032007F01BFCF1074CBF344643
:10A60800741CC4F307236B700023EB702B71334B5E
:10A6180001272F70AC7083F84170314BDD609E804C
:10A62800002857D0322006F067FC38462946042215
:10A638003B46FFF783FE00284CD005343220A4B2F5
:10A6480006F05AFC3846291D221F39E0022007F07F
:10A65800C7FB00283ED0EFF3108972B6204F3C7A32
:10A66800B846A21E544254411CB10420012107F0EF
:10A67800DFFB484607F0ADFB14B97B69002BEAD035
:10A68800D8F8143033BBF3074CBF3446741CC4F3FA
:10A6980007236B700023EB702B7101270F4B2F7072
:10A6A800AC70052083F84170C8F80C50A8F8046015
:10A6B80007F096FB70B10534A4B238462946224605
:10A6C8000346FFF73BFE002814BF20464FF0FF303B
:10A6D800BDE8F8834FF0FF30BDE8F883B4070020E9
:10A6E800041000207047000010B5204A18B91368FC
:10A6F80002221A8210BD1E481468002303802178A4
:10A70800024611F07F010DD1637A990644BF0221F8
:10A71800017013F0400F037814BF43F0010323F0D6
:10A72800010314E0012920D002291DD1617901F02B
:10A738000F039B0003F1804303F5B84311F0800F2A
:10A748001B6806D003F03003102B07D101231370C8
:10A7580004E003F44053B3F5805FF6E7054B1B684C
:10A768001B699847024810BD184610BD54070020C1
:10A778005E0700205807002010B5064C18B923685A
:10A7880001221A8210BD044B1B689B6898472068F9
:10A798000C3010BD540700205807002010B5064C97
:10A7A80018B9236801221A8210BD044B1B681B6864
:10A7B800984720680A3010BD540700205807002029
:10A7C800084BDA68D10709D4DA68520708D4DB687D
:10A7D80013F0100F14BF03200420704701207047A6
:10A7E800022070470020024010F0800F4FEA40001E
:10A7F80018BF80F01B00C0B270470B0A017043708D
:10A808000B0C090E8370C17004307047F8B51C46F4
:10A8180002339BB21746CB7103221B0AB4F57A7F29
:10A8280088710D464A710B7201F10B000DD8230A8D
:10A838004C728B722246394608F066FFA11D2846E5
:10A84800BDE8F84089B2FFF7C5BEE8238A724B72AB
:10A858004FF47A72394608F057FFA4F57A742846FF
:10A8680040F2EE31A4B207F57A77FFF7B3FEB4F5FC
:10A878007A7F92BF26464FF47A76A4F57A743946E1
:10A88800A5F8056005F1070032468CBFA4B2002484
:10A8980008F03AFFB11C681D89B23744FFF79AFEE9
:10A8A800002CE4D1F8BD08B501238871000A4B716A
:10A8B800C8710A720846111DFFF78CFE002008BDFA
:10A8C800024B18800846002103F020BAB407002084
:10A8D800034637B50D460D4A1946946804F1090038
:10A8E800FFF78BFF2946FFF788FF2146082240F231
:10A8F8000320FFF7D8FF40F203200DF10701FFF70F
:10A90800DFFF9DF8070003B030BD00BFB40700208B
:10A918002DE9F34186461F4602AE4FF0FF3346F855
:10A92800043D1B4B0C469D68714605F10A00904694
:10A93800FFF763FF0C230021037041708170C17021
:10A9480021460430FFF759FF4146FFF756FF2246DC
:10A95800394605F11A0008F0D7FE02236B719023DF
:10A96800A4B2AB711023EB71E3189BB22B7204F104
:10A9780015011B0A6B72284689B2FFF72BFE40F2BD
:10A9880002203146FFF79CFF019802B0BDE8F08134
:10A99800B4070020072830B518D8012916D8012394
:10A9A8008340DB4381400A4A1468BFF35F8F03EAA0
:10A9B8000400084352E8005FA54204D142E8000EB3
:10A9C800BEF1000FF6D1BFF35F8FECD130BD00BFF1
:10A9D8009000002010B542189378D478405C1B048E
:10A9E80003EB04630344507803EB002010BD4318C5
:10A9F8005A78435C03EB022080B2704770B501219E
:10AA080086B00446FFF7F3FF430405463BD5B0F58F
:10AA1800824F38D120460521FFF7E9FF04EB80007B
:10AA2800E61D0025C41DA64206D030460221FFF7C8
:10AA3800DEFF04360544F6E7BFF35F8F7A4BD3E8B1
:10AA48005F2F2A44C3E8512F0029F8D1BFF35F8F45
:10AA5800BFF35F8F03F10C0252E8001F294442E85C
:10AA680000100028F8D1BFF35F8F303BD96B9A6B89
:10AA7800914240F0CA8093F84020002A00F0C58037
:10AA88009B69992031E025F4FF4020F07F0080B2D7
:10AA9800002800F0978048F210039D4228D00CD877
:10AAA800B5F5004F40F2BC8048F202039D4215D92B
:10AAB80048F204039D4211D0B2E048F280039D425F
:10AAC8000CD004D848F240039D4250D0A8E0B5F518
