:020000040800F2
:10500000005000207D580108C11801083D18010812
:1050100001180108C51701088917010800000000E0
:10502000000000000000000000000000C958010856
:105030008517010800000000C9580108AD4C01089F
:10504000C9580108C9580108C958010875ED000878
:10505000C9580108C95801082D1701080D17010882
:10506000D9160108B916010899160108C95801088E
:10507000C9580108C9580108C9580108F5EB0008CA
:10508000C9580108C9580108C9580108C958010878
:10509000B5E30008C9580108C958010851160108AC
:1050A000C9580108C9580108C9580108C91401089C
:1050B0005D140108F9130108951301086D17010823
:1050C0005D170108C9580108C95801084D170108A2
:1050D000C9580108811701087D170108C95801083E
:1050E000651501081DED0008C95801080000000001
:1050F00000000000000000000000000000000000B0
:0C51000000000000000000005FF808F153
:10510C00005000087CD701080000000000000300DC
:08511C0000000000000000008B
:105128004FEA4002B2F1FE4F0FD34FF09E03B3EBAC
:1051380012620DD94FEA002343F0004310F0004FEC
:1051480023FA02F018BF404270474FF00000704742
:1051580012F1610F01D1420205D110F0004008BFE1
:105168006FF0004070474FF00000704710F8012BB7
:1051780011F8013B012A28BF9A42F7D0D01A70478C
:1051880081F0004102E000BF83F0004330B54FEAF0
:1051980041044FEA430594EA050F08BF90EA020F5D
:1051A8001FBF54EA000C55EA020C7FEA645C7FEAF0
:1051B800655C00F0E2804FEA5454D4EB5555B8BF13
:1051C8006D420CDD2C4480EA020281EA030382EA84
:1051D800000083EA010180EA020281EA0303362D16
:1051E80088BF30BD11F0004F4FEA01314FF4801CE9
:1051F8004CEA113102D0404261EB410113F0004FFB
:105208004FEA03334CEA133302D0524263EB4303B1
:1052180094EA050F00F0A780A4F10104D5F1200E4F
:105228000DDB02FA0EFC22FA05F2801841F10001AA
:1052380003FA0EF2801843FA05F359410EE0A5F17E
:1052480020050EF1200E012A03FA0EFC28BF4CF0AF
:10525800020C43FA05F3C01851EBE37101F0004565
:1052680007D54FF0000EDCF1000C7EEB00006EEB72
:105278000101B1F5801F1BD3B1F5001F0CD34908FC
:105288005FEA30004FEA3C0C04F101044FEA445253
:1052980012F5800F80F09A80BCF1004F08BF5FEADA
:1052A800500C50F1000041EB045141EA050130BDBA
:1052B8005FEA4C0C404141EB010111F4801FA4F15D
:1052C8000104E9D191F0000F04BF01460020B1FAB2
:1052D80081F308BF2033A3F10B03B3F120020CDAEA
:1052E8000C3208DD02F1140CC2F10C0201FA0CF0C8
:1052F80021FA02F10CE002F11402D8BFC2F1200C2D
:1053080001FA02F120FA0CFCDCBF41EA0C019040E2
:10531800E41AA2BF01EB0451294330BD6FEA04042B
:105328001F3C1CDA0C340EDC04F11404C4F1200216
:1053380020FA04F001FA02F340EA030021FA04F328
:1053480045EA030130BDC4F10C04C4F1200220FA7F
:1053580002F001FA04F340EA0300294630BD21FABD
:1053680004F0294630BD94F0000F83F4801306BF83
:1053780081F480110134013D4EE77FEA645C18BF77
:105388007FEA655C29D094EA050F08BF90EA020F0E
:1053980005D054EA000C04BF1946104630BD91EA06
:1053A800030F1EBF0021002030BD5FEA545C05D109
:1053B8004000494128BF41F0004130BD14F5800448
:1053C8003CBF01F5801130BD01F0004545F0FE41BC
:1053D80041F470014FF0000030BD7FEA645C1ABFF1
:1053E800194610467FEA655C1CBF0B46024650EA28
:1053F800013406BF52EA033591EA030F41F4002154
:1054080030BD00BF90F0000F04BF0021704730B5D9
:105418004FF4806404F132044FF000054FF00001AE
:1054280050E700BF90F0000F04BF0021704730B56F
:105438004FF4806404F1320410F0004548BF404244
:105448004FF000013EE700BF42004FEAE2014FEA99
:1054580031014FEA02701FBF12F07F4393F07F4F74
:1054680081F06051704792F0000F14BF93F07F4FA6
:10547800704730B54FF4607401F0004521F00041E9
:1054880020E700BF50EA010208BF704730B54FF06F
:1054980000050AE050EA010208BF704730B511F074
:1054A800004502D5404261EB41014FF4806404F1AC
:1054B80032045FEA915C3FF4DCAE4FF003025FEA2E
:1054C800DC0C18BF03325FEADC0C18BF033202EBB6
:1054D800DC02C2F1200300FA03FC20FA02F001FA10
:1054E80003FE40EA0E0021FA02F11444C1E600BFAF
:1054F80070B54FF0FF0C4CF4E06C1CEA11541DBF62
:105508001CEA135594EA0C0F95EA0C0F00F0DEF82C
:105518002C4481EA030621EA4C5123EA4C5350EA11
:10552800013518BF52EA033541F4801143F4801362
:1055380038D0A0FB02CE4FF00005E1FB02E506F0F3
:105548000042E0FB03E54FF00006E1FB03569CF048
:10555800000F18BF4EF0010EA4F1FF04B6F5007F4E
:1055680064F5407404D25FEA4E0E6D4146EB0606C0
:1055780042EAC62141EA55514FEAC52040EA5E5049
:105588004FEACE2EB4F1FD0C88BFBCF5E06F1ED8F3
:10559800BEF1004F08BF5FEA500E50F1000041EB2A
:1055A800045170BD06F0004646EA010140EA0200D7
:1055B80081EA0301B4EB5C04C2BFD4EB0C0541EAF9
:1055C800045170BD41F480114FF0000E013C00F30E
:1055D800AB8014F1360FDEBF002001F0004170BD32
:1055E800C4F10004203C35DA0C341BDC04F114044B
:1055F800C4F1200500FA05F320FA04F001FA05F2D7
:1056080040EA020001F0004221F0004110EBD370A3
:1056180021FA04F642EB06015EEA430E08BF20EACF
:10562800D37070BDC4F10C04C4F1200500FA04F372
:1056380020FA05F001FA04F240EA020001F0004104
:1056480010EBD37041F100015EEA430E08BF20EA77
:10565800D37070BDC4F1200500FA05F24EEA020EBF
:1056680020FA04F301FA05F243EA020321FA04F0EE
:1056780001F0004121FA04F220EA020000EBD370A5
:105688005EEA430E08BF20EAD37070BD94F0000FA5
:105698000FD101F00046400041EB010111F4801FD9
:1056A80008BF013CF7D041EA060195F0000F18BF8A
:1056B800704703F00046520043EB030313F4801FC6
:1056C80008BF013DF7D043EA0603704794EA0C0F80
:1056D8000CEA135518BF95EA0C0F0CD050EA410696
:1056E80018BF52EA4306D1D181EA030101F0004113
:1056F8004FF0000070BD50EA410606BF104619463B
:1057080052EA430619D094EA0C0F02D150EA013646
:1057180013D195EA0C0F05D152EA03361CBF104687
:1057280019460AD181EA030101F0004141F0FE4126
:1057380041F470014FF0000070BD41F0FE4141F4AA
:10574800780170BD70B54FF0FF0C4CF4E06C1CEAAA
:1057580011541DBF1CEA135594EA0C0F95EA0C0F5F
:1057680000F0A7F8A4EB050481EA030E52EA03351A
:105778004FEA013100F088804FEA03334FF080553B
:1057880045EA131343EA12634FEA022245EA111568
:1057980045EA10654FEA00260EF000419D4208BF19
:1057A800964244F1FD0404F5407402D25B084FEAC6
:1057B8003202B61A65EB03055B084FEA32024FF472
:1057C80080104FF4002CB6EB020E75EB030E22BFCF
:1057D800B61A754640EA0C005B084FEA3202B6EB8F
:1057E800020E75EB030E22BFB61A754640EA5C003E
:1057F8005B084FEA3202B6EB020E75EB030E22BFCE
:10580800B61A754640EA9C005B084FEA3202B6EBCE
:10581800020E75EB030E22BFB61A754640EADC008D
:1058280055EA060E18D04FEA051545EA16754FEAEF
:1058380006164FEAC30343EA52734FEAC2025FEA0D
:105848001C1CC0D111F4801F0BD141EA00014FF09C
:1058580000004FF0004CB6E711F4801F04BF01436D
:105868000020B4F1FD0C88BFBCF5E06F3FF6AFAE89
:10587800B5EB030C04BFB6EB020C5FEA500C50F119
:10588800000041EB045170BD0EF0004E4EEA11319C
:1058980014EB5C04C2BFD4EB0C0541EA045170BDA3
:1058A80041F480114FF0000E013C90E645EA060EE7
:1058B8008DE60CEA135594EA0C0F08BF95EA0C0F15
:1058C8003FF43BAF94EA0C0F0AD150EA01347FF45D
:1058D80034AF95EA0C0F7FF425AF104619462CE734
:1058E80095EA0C0F06D152EA03353FF4FDAE104697
:1058F800194622E750EA410618BF52EA43067FF4E8
:10590800C5AE50EA41047FF40DAF52EA43057FF477
:10591800EBAE12E74FF0FF3C06E000BF4FF0010C82
:1059280002E000BF4FF0010C4DF804CD4FEA410CE6
:105938007FEA6C5C4FEA430C18BF7FEA6C5C1BD0B3
:1059480001B050EA410C0CBF52EA430C91EA030F34
:1059580002BF90EA020F0020704710F1000F91EA91
:10596800030F58BF994208BF90422CBFD8176FEA5F
:10597800E37040F0010070474FEA410C7FEA6C5C2D
:1059880002D150EA013C07D14FEA430C7FEA6C5C34
:10599800D6D152EA033CD3D05DF8040B704700BF60
:1059A8008446104662468C461946634600E000BFAE
:1059B80001B5FFF7B7FF002848BF10F1000F01BD80
:1059C8004DF808EDFFF7F4FF0CBF012000205DF84B
:1059D80008FB00BF4DF808EDFFF7EAFF34BF0120D0
:1059E80000205DF808FB00BF4DF808EDFFF7E0FF69
:1059F80094BF012000205DF808FB00BF4DF808EDBA
:105A0800FFF7CEFF94BF012000205DF808FB00BF20
:105A18004DF808EDFFF7C4FF34BF012000205DF802
:105A280008FB00BF4FEA410212F5001215D211D54A
:105A38006FF47873B3EB625212D94FEAC12343F083
:105A4800004343EA505311F0004F23FA02F018BF05
:105A5800404270474FF00000704750EA013005D1CE
:105A680011F0004008BF6FF0004070474FF0000091
:105A7800704700BF4A0011D212F5001211D20DD59D
:105A88006FF47873B3EB62520ED44FEAC12343F03C
:105A9800004343EA505323FA02F070474FF00000E6
:105AA800704750EA013002D14FF0FF3070474FF095
:105AB800000070474FEA4102B2F1E04324BFB3F55A
:105AC800001CDCF1FE5C0DD901F0004C4FEAC0026D
:105AD8004CEA5070B2F1004F40EB830008BF20F051
:105AE8000100704711F0804F21D113F13872BCBF0B
:105AF80001F00040704741F480114FEA5252C2F160
:105B08001802C2F1200C10FA0CF320FA02F018BFA8
:105B180040F001004FEAC1234FEAD32303FA0CFCFB
:105B280040EA0C0023FA02F34FEA4303CCE77FEA8A
:105B3800625307D150EA01331EBF4FF0FE4040F4D4
:105B48004000704701F0004040F0FE4040F4000083
:105B5800704700BF80F0004002E000BF81F00041C4
:105B680042001FBF5FEA410392EA030F7FEA226CFB
:105B78007FEA236C6AD04FEA1262D2EB1363C1BF8B
:105B8800D218414048404140B8BF5B42192B88BFFA
:105B9800704710F0004F40F4000020F07F4018BF1D
:105BA800404211F0004F41F4000121F07F4118BF3D
:105BB800494292EA030F3FD0A2F1010241FA03FCE5
:105BC80010EB0C00C3F1200301FA03F100F00043CD
:105BD80002D5494260EB4000B0F5000F13D3B0F195
:105BE800807F06D340084FEA310102F10102FE2A04
:105BF80051D2B1F1004F40EBC25008BF20F0010074
:105C080040EA03007047490040EB000010F4000F21
:105C1800A2F10102EDD1B0FA80FCACF1080CB2EBB4
:105C28000C0200FA0CF0AABF00EBC2505242184313
:105C3800BCBFD0401843704792F0000F81F40001B8
:105C480006BF80F400000132013BB5E74FEA41038B
:105C58007FEA226C18BF7FEA236C21D092EA030FF7
:105C680004D092F0000F08BF0846704790EA010F71
:105C78001CBF0020704712F07F4F04D1400028BF9E
:105C880040F00040704712F100723CBF00F5000080
:105C9800704700F0004343F0FE4040F400007047B6
:105CA8007FEA226216BF08467FEA23630146420262
:105CB80006BF5FEA412390EA010F40F48000704775
:105CC8004FF0000304E000BF10F0004348BF40421B
:105CD8005FEA000C08BF704743F0964301464FF057
:105CE80000001CE050EA010208BF70474FF00003B3
:105CF8000AE000BF50EA010208BF704711F00043F4
:105D080002D5404261EB41015FEA010C02BF8446C3
:105D18000146002043F0B64308BFA3F18053A3F522
:105D28000003BCFA8CF2083AA3EBC25310DB01FA69
:105D380002FC634400FA02FCC2F12002BCF1004FED
:105D480020FA02F243EB020008BF20F0010070477E
:105D580002F1200201FA02FCC2F1200250EA4C00D2
:105D680021FA02F243EB020008BF20EADC70704718
:105D78007047417470477047054B1B68052B01BF7E
:105D8800044B18684042C0B218BF4FF0FF3070474C
:105D9800E01000200C070020164B1B68052B25D1AE
:105DA80015480378012B21D1144B154A1B8899B249
:105DB80013889BB2CB1A012B0FD100231149037012
:105DC8000B6823F4804323F070039BB283F44053A1
:105DD80043F4004343F080030B6013889BB2591CC3
:105DE80089B21180084AD05CC0B270474FF0FF30CA
:105DF800704700BFE0100020780F0020EC10002052
:105E08007A0F00200C5C00407D0F0020027C0B4BB9
:105E180053F82230D869B0F88010B0F8822089B2DF
:105E280092B29142F7D193F825201AB11A681288D4
:105E38005206FBD5002283F825207047F410002075
:105E4800027C0E4B53F822301B6AB3F88010B3F86B
:105E5800822089B292B291421FBFB3F8822092B2D7
:105E680033F81200B3F882200FBF4FF0FF30013231
:105E780002F03F02A3F88220704700BFF410002010
:105E8800027C0A4B53F822301B6AB3F88010B3F82F
:105E9800822089B292B291421DBFB3F8822092B299
:105EA80033F812004FF0FF30704700BFF4100020A5
:105EB800027C064B53F822301A6AB2F88030B2F8E6
:105EC8008200181A00F03F00704700BFF41000204D
:105ED8004174704770470000014803681B6C1847FD
:105EE80078120020F8B506460D468F180024BD42EA
:105EF8000CD0336830469B6815F8011B984700287A
:105F080001DB0444F3E7002C08BF04462046F8BD33
:105F180002460B6808469B68114618477047704749
:105F2800027C074B53F8222092F8493092F84A1025
:105F3800994286BF9B1893F829004FF0FF307047AD
:105F480010110020027C094B53F8222092F84930A6
:105F580092F84A10994281BF591C82F849109B183F
:105F680093F8290098BF4FF0FF30704710110020B8
:105F7800027C044B53F8223093F84A0093F84930D6
:105F8800C01A704710110020F8B5064615460C4691
:105F98008F18BC4206D0336830469B6814F8011B42
:105FA8009847F6E72846F8BD027C0C4B53F8223098
:105FB80093F86E2072B193F86D201F2A0CD893F8CD
:105FC8006C00421CD2B2184483F86C2080F84C1044
:105FD80083F86D20012070470020704710110020C1
:105FE80000207047C06810B103685B6818477047A5
:105FF80010B504460FF0A6FD204610BD10B50446A6
:106008000FF0A0FD204610BD10B504460FF09AFD14
:10601800204610BD10B504460FF094FD204610BD73
:1060280010B504460FF08EFD204610BD10B504468D
:106038000FF088FD204610BD10B504460FF082FD14
:10604800204610BD08B1FFF7F7BF7047084B1B6823
:10605800052B0AD1074B1B78012B06D1064B074AA3
:106068001B889BB2D05CC0B270474FF0FF307047BE
:10607800E0100020780F00207A0F00207D0F00200C
:1060880008B5124B1A68052A05D1114A12685242FE
:1060980012F0FF0F02D1407C00B908BD1B68052B28
:1060A80012D10B4B0B481A6881541A6801321A60D6
:1060B8001A68B2F5807F04BF00221A6009F0E4FF75
:1060C80010B164200BF01AF9012008BDE01000207F
:1060D8000C070020BD0F002008B50EF099FC08BD84
:1060E800007C0EF017BD0000F8B5447C05460E464E
:1060F80034B9007C0EF00EFD002801DC2046F8BD06
:10610800424F2C7C57F82450A86A0EF01BFD2A68D1
:106118009389118813F0800F89B23B4601D0090694
:106128000CD4E969B1F88050B1F88210ADB289B2E7
:106138008D4203D0D16841F08001D16053F824200A
:10614800D269B2F88020013202F03F0253F824E00D
:10615800DEF81C50B5F8821089B28A420BD1DEF8FD
:106168000010B1F80CC00F881CF0800FBFB2F1D03E
:106178003F06EFD521E0EFF31081C90714D4B5F835
:106188008010304089B225F8110053F8243092B2BB
:10619800D9690120A1F880201A6883F82500D368FE
:1061A80043F08003D360F8BDB5F88070B5F882106D
:1061B800BFB289B28F42D2D1E1E70F883F06C9D575
:1061C800CD6825F08005CD6053F82410CD69D1F84D
:1061D80000E0B5F8821089B24F1CBFB2A5F88270F2
:1061E80035F81110C1F30801AEF8041053F8245023
:1061F800EF69B7F8821001F03F01A7F882102D6807
:10620800E96841F08001E960A0E700BFF4100020D0
:10621800826810B50AB90FF039FCC368BDE81040B0
:1062280018470000BFF34F8F0449054BCA6802F4B2
:10623800E0621343CB60BFF34F8FFEE700ED00E051
:106248000400FA0538B5031E0C46154609DA2D2256
:10625800B3F1004F0A7008BF18462A4618BF5842C3
:10626800013104F0BBFC204638BD704708B50B4B24
:106278001A68D20710D41A7872B909484FF47A719B
:1062880081600849426002740122016042741A70F8
:106298000549064A0FF015FB014808BD68040020AF
:1062A8006C04002098AF0108795D000828120020CE
:1062B8002DE9F843184F3B68DB072AD43D7845BBE6
:1062C800164E4FF47A73B360154B164C1648DFF828
:1062D80068903360154B4FF0010829468422756099
:1062E8002062C4F81C901C60357486F811800FF089
:1062F80075FC2946842248460FF070FC84F8245027
:1063080084F8255087F8008030460949094A0FF07B
:10631800D8FA0248BDE8F883180500208004002058
:10632800C09301080000002020050020F410002080
:10633800DD5E0008281200209404002008B50F4BE9
:1063480033B1FFF793FF03681B69984700280DDCFA
:106358000B4B33B1FFF7ACFF03681B699847002864
:1063680007DC084B43B1AFF3008008BDAFF30080F2
:10637800EEE7AFF30080F4E708BD00BF00000000BF
:106388000000000000000000704738B504460068AF
:106398000D4610B163688B4208D2691C10F0F6F8FC
:1063A80028B1A36884E8210003B90370012038BD2F
:1063B80070B5044683680E4609B9002070BD62B105
:1063C800D5182946FFF7E1FF0028F6D02068A36812
:1063D8003146184412F088FFA560012070BD07B54A
:1063E80000238DF80410012201A980688DF805307A
:1063F800FFF7DEFF03B05DF804FB38B5044680689C
:106408008568FFF7D5FFA3689868401B38BD70B54D
:106418000E46114604461546FFF7B7FF236840B9F4
:1064280013B118460FF08EFB00232360A36063604E
:1064380009E0184631462A46A5600FF0A9FB2268F4
:10644800A3680021D154204670BD10B504460068E9
:106458000FF078FB204610BD38B5002304460360D2
:106468004360836003730D4639B1084610F0ECF8B9
:10647800294602462046FFF7CAFF204638BD704726
:1064880003689B68184738B50D210546FFF7F8FFE4
:106498000A2104462846FFF7F3FF204438BD70B5AB
:1064A80005460C46084649B110F0CEF82B6802465E
:1064B80021462846BDE87040DB68184770BD012AB0
:1064C80098BF0A2230B50B468BB000218DF82410F6
:1064D8000DF12304B3FBF2F505FB1233DBB2092BF4
:1064E80094BF30333733DBB2214604F801392B46E9
:1064F800002DEFD1FFF7D3FF0BB030BDF8B50F4635
:1065080000F10806051D002416F8011D38460A2268
:10651800FFF7D5FFAE42044407D0002CF4D038462C
:106528002E21FFF7ADFF0444EEE72046F8BD38B54D
:106538000546FFF7B4FF04462846FFF7A4FF2044AA
:1065480038BD00007FB50C46FFF790FE5C49FFF7A9
:10655800EEFF204610F078F800210722054602A831
:106568000FF03CFB002321461A460193081BA84262
:1065780014DA11F8010B7E2802D101320023F5E765
:1065880032B1012AF2D104AE1E4406F8080C03E029
:1065980004AE1E4406F80C0C0133E7E7FFF766FE6D
:1065A80002A9FFF7C4FFFFF761FE01A9FFF7BFFFCC
:1065B80002A8002110F0AEFEFFF77CFA12F0B6FE3A
:1065C800FEF7AEFD044601A80FF097FAA0F1C80344
:1065D800632B22D9B0F5487F21D06FF44873C318D4
:1065E800012B1ED9A0F22333012B1CD9A0F59673D9
:1065F800632B1AD9A0F5FA73632B18D9A0F5167373
:10660800632B16D9A0F52F73632B14D9A0F56170ED
:1066180009288CBF002509250EE001250CE002257C
:106628000AE0032508E0042506E0052504E0062520
:1066380002E0072500E00825002C4FEAD476B8BF11
:106648006442FFF713FE314608F0C6FCFFF70EFE62
:10665800214608F0C1FCFFF709FE294608F0BCFCFA
:10666800184B00229A60092CD4BF04220822760015
:106678001E601A440A2194FBF1F001FB10441249F0
:1066880051F82410044642F804190028F2D10F4AA0
:10669800214652F82520DA600D4B18880AF0DAF9FD
:1066A8000C4B0D4A1968914208DC01321A60042427
:1066B800FFF7DCFDFFF7E7FE013CF9D104B070BD40
:1066C800109401085800002024940108E893010858
:1066D800680000206C000020BF27090004300CF07F
:1066E800B9BA000010B50446034B00210360FFF758
:1066F800F5FF204610BD00BF20AC010810B50446C8
:10670800FFF7F0FF20460FF01DFA204610BD704736
:106718007047704738B5046805467CB16368013B2B
:1067280063605BB9236820469B689847A368013B70
:10673800A3601BB923682046DB689847284638BD04
:1067480030B50A684B6885B005460C46009201933F
:1067580013B1596801315960019B002102920191DE
:106768000393009185E80C0013B15A6801325A600E
:1067780003A8FFF7CFFF01A8FFF7CCFF201DFFF705
:10678800C9FF20460FF0DEF9284605B030BD10B528
:106798008368044613B1014603229847204610BD7A
:1067A80038B50A4B04460360C5682DB12846FFF783
:1067B800EEFF28460FF0C6F925692DB12846FFF7E8
:1067C800E6FF28460FF0BEF9204638BD88B5010817
:1067D80010B50446024B0360FFF7E2FF204610BDE8
:1067E80050B5010810B50446FFF7F2FF20460FF038
:1067F800A9F9204610BD10B50446FFF7D1FF204681
:106808000FF0A0F9204610BD034637B500200190CF
:106818001A1D022452E8005F854204D142E8004E66
:10682800BEF1000FF6D120D19982BFF35F8F01220C
:106838001A72BFF35F8F03F1100252E8004F42E86B
:1068480000010029F9D1BFF35F8F74B1A2680AB9BA
:106858000FF01CF9E268204603F114019047204626
:10686800FFF795FF20460FF06DF903B030BD30B546
:10687800054685B002A81146FFF762FF25B10298C8
:106888002946FFF7C1FF26E0029B0195191D012249
:1068980051E8000F002803D141E80024002CF7D16B
:1068A80001D0019017E0BFF35F8F1A72BFF35F8FBB
:1068B8000C3353E8004F43E80052002AF9D1BFF3E4
:1068C8005F8F44B12046FFF7A3FC2046FFF75FFF28
:1068D80020460FF037F903A8FFF71CFF05B030BDBD
:1068E80038B50546002944D051F8043C0C1F002B4C
:1068F800B8BFE4180FF07AF91E4A1368104613B9A6
:106908006360146030E09C420DD222680460A118D4
:10691800994201BFA3589B1823604B68636023E02A
:10692800A24203D813465A68002AF9D118681918E0
:10693800A1420BD12168014458189042196013D123
:1069480010680144196052685A600DE002D90C239E
:106958002B6009E020682118914201BF11680918CD
:106968002160526862605C602846BDE838400FF0DC
:106978003EB938BDA4050020F8B5CD1C25F00305A7
:1069880008350C2D38BF0C25002D064601DB8D423D
:1069980002D20C23336049E00FF028F9244B1C681D
:1069A8001A462146A1B10B685B1B0ED40B2B03D9E9
:1069B8000B60CC18CD501FE08C420BBF63684B684E
:1069C8001360636018BF0C4616E00C464968E9E797
:1069D800184C23681BB930460FF0E2FD20603046A2
:1069E80029460FF0DDFD431C04461AD0C71C27F0CA
:1069F800030787420DD1256030460FF0F8F804F1FF
:106A08000B00231D20F00700C31A10D05A42E25091
:106A1800F8BD3046391B0FF0C3FD013001D03C46AC
:106A2800E9E70C23336030460FF0E1F80020F8BDA9
:106A3800A40500201C050020F8B5074615460E469B
:106A480021B91146BDE8F840FFF796BF1AB9FFF71C
:106A580047FF2846F8BD51F8043C002BBEBFCA18B2
:106A680052F8042C9B18043BAB420DD22946FFF781
:106A780083FF044650B131462A460FF089F838465C
:106A88003146FFF72DFF01E00846F8BD2046F8BD66
:106A980038B502FB01F42146FFF76EFF054618B131
:106AA800002122460FF09AF8284638BD2DE9F04F0C
:106AB8000446DFB0079106F027F8D4F8F03606460A
:106AC80098420ED2079B10261E7004F27F7AD4F8E3
:106AD8007C365046022100229847012828DC01F024
:106AE8001BB84FF0FF33C4F8F0360025D4F8E83669
:106AF8009D42E7DAD4F8E43603EB0513DB68B342CA
:106B08000ED318A804F2E4612A460CF077FB19A802
:106B18004FF42F710EF043FD19A80EF04CFDE5E778
:106B2800D4F8F0260135934238BFC4F8F036DDE7D3
:106B3800D4F894369847002384F83C3794F87F7744
:106B480094F88037C4F8300743EA072723689F4240
:106B580000F2C287204651463A460CF02DFC002828
:106B6800C0F2BA87534612AD04F28F762A461868E7
:106B78005968083303C2B3421546F7D10A23C4F84B
:106B8800A43304F56B73C4F8A83318A804F2F461AD
:106B98000CF0C0F8189A199912018B188A58D4F871
:106BA800A463C4F8AC235A6804F56975C4F8B02323
:106BB8009A6804F56F70C4F8B423DA68C4F8B82387
:106BC800013E002EA3F1100331DD4FF0000E53F803
:106BD8002E20BB494FEA126C11F80C805FFA82FC38
:106BE80011F80C90DFF8FCC25CF82880DFF8F8C2D6
:106BF8005CF829C088EA0C0CC2F3072811F8089041
:106C0800C2F30742DFF8E482895CAE4A58F829806B
:106C180052F821208CEA080C8CEA020240F82E2057
:106C28000EF1010EBEF1040FD1D11030C8E71A6879
:106C3800002102605A68564642609A688260DB68A2
:106C48004FF48C72C36018A80EF0C8FFBB1B5344E6
:106C5800002B31DD33460DF1600E06F1100C724643
:106C680018685968083303C263459646F7D1284621
:106C78000021334632460DF093F9731E04F2137166
:106C880006F10F0013F8012F11F801EF83428EEA85
:106C980002021A70F6D10DF1600E04F214720DF1B1
:106CA800700C734603CB6345106051609E4602F139
:106CB8000802F6D11036C9E712ADA84604F21472DC
:106CC80016AE2B4603CBB342106051601D4602F14D
:106CD8000802F6D1032F40F2DB8794F87F2794F857
:106CE800806702F00F030533BB4234BF1AF8033044
:106CF8000023022E00F0AC8707D8002E00F0CB87C7
:106D0800012E00F0888700F0C3BF032E00F08A87A9
:106D1800452E40F0BD870C2694F8813794F88217E9
:106D2800E51941EA03220692226894F8839705F24E
:106D38007F7508920E2E00F2D086DFE816F03E0628
:106D480017002301B0019D029D02ED047603590549
:106D5800CE06E505110642060F0089064FF0FF35FD
:106D6800D4F8E87600202A4600F090BE082F0FD904
:106D780094F88757032D0CD9534A202318938DE88C
:106D8800240000232820514918AA19930BF034FF36
:106D9800032594F8823794F8812784F88437FF23F1
:106DA80084F886372368612184F8811784F883275B
:106DB8004521A3F10802464B84F8821704F2877133
:106DC80018930B461991134484F8859718A84149DC
:106DD8001A9309F079F815F0020704F2817800F0A7
:106DE80087803D4918A809F06FF8D4F8AC36984761
:106DF80081464FF0000BCB4520DABBF1000F03D0E2
:106E080018A82C210EF0DFFB222118A80EF0DBFBBE
:106E1800D4F8B0365846984706900FF015FC0C2861
:106E28000246069928BF0C2218A808F031FF18A8B6
:106E380022210EF0C8FB0BF1010BDCE7274918A84B
:106E480009F042F8D4F8B83698474FF0000B06908E
:106E5800069B9B452EDABBF1000F03D018A82C2106
:106E68000EF0B1FB222118A80EF0ADFBD4F8BC2619
:106E78005846904781460FF0E7FBD4F8C0160990B2
:106E880048468847099A08900C2A28BF0C22494688
:106E980018A808F0FDFE124918A809F015F8DDF841
:106EA80020C018A80CF13001C9B20EF08CFB0BF110
:106EB800010BCDE718A87D210EF085FB012318E012
:106EC800CBBB0108349A010873980108609801083F
:106ED800589401089B9801088F9801089598010813
:106EE80075B4010834A20108349E01085C940108B5
:106EF8003B46D4F8D02605F001055AB155B11BB16F
:106F080018A82C210EF05FFBD4F8D036D24818A967
:106F1800002298477D2118A80EF055FB1998C8EB58
:106F2800000121F00F0909F1100BC1EB0B01C9B2E7
:106F38000A460EF053FE204641465A460CF08FF999
:106F48004FEA2B2384F87F37C4492023C44A189377
:106F580000239D4214BF15460D46C24A84F880B7E7
:106F68009F4214BF17460F46BF4A1E208DE8A40053
:106F7800BE4918AA19930BF03FFE2046514609F165
:106F880012024CE200210D220AA80EF027FE94F806
:106F980086B704F287710BF00F0B0AA85A460EF059
:106FA800F7FD0BF10801631893F87FA70AF00F0AA1
:106FB800BAF10D0F0AD10BF10901631893F87FA7F5
:106FC8000AF10D0ABAF13F0F11DC02E0BAF10E0F17
:106FD8000DD02144524604F23F7001F5F0610EF0E5
:106FE800D7FDA24400238AF83F37012300E000239D
:106FF8004FF0000AE21982F87FA710226A7094F80D
:1070080082275345204694F8813705F10201009202
:107018000CBF802252460CF05AF92046294612220B
:107028000CF0F2F95045C0F257851B954546D4F847
:10703800B4361A970993089B1894DF1BBDF81830CB
:107048001C978DF86490ADF8743018AF0FCF0FC54A
:1070580097E8030085E803001820CDF840A00EF05B
:1070680069FD04F23F7B074648B10546C8F8004071
:10707800B8E80F000FC598E8030085E803007C4BCB
:107088000E9711937B4B0AA8109359460EAA00231A
:10709800099DA8470EA8FFF77AFB00F01EBD94F8DB
:1070A800865704F2877705F00F050C2D28BF0C25AD
:1070B8002A46394618A80EF06BFD18AB5819C5F1C9
:1070C8000D0200210EF08AFD1025002384F87F3779
:1070D80084F88057D4F8C03618A8984701281DD1DD
:1070E800D4F8C43618A8984794F88227037894F8F7
:1070F8008117612084F8810784F884274520FF22BE
:1071080084F8820784F8831784F8859784F886279B
:1071180084F8873704F5F160092189E0022826D12F
:10712800D4F8C43618A8984794F88227036884F8D6
:107138008427FF2284F886271A1694F8811761207D
:1071480084F887271A1484F8810784F8882745204B
:107158001A1284F8820784F8831784F8859784F8CC
:10716800892784F88A3704F28B70062160E00428A6
:107178003AD1D4F8C43618A8984783460FF064FA71
:10718800256894F88237123D8542A8BF054694F8D1
:107198008127612184F8811784F884374521FF23EA
:1071A80084F8863784F8821784F8832759462A4654
:1071B80084F8859738460EF0EBFCA81D20F00F05E3
:1071C8001035291AC9B204F281780A4640440EF0F3
:1071D80005FD2A46204641460CF041F884F88057C0
:1071E8002D1284F87F572CE009282AD1D4F8C43608
:1071F80018A898475EAB03C894F8822763E9500142
:1072080094F881E7612184F8811784F8842745215F
:10721800FF2284F8821784F883E703CB84F88597E4
:10722800C4F8870784F8862704F28F7079600221F2
:107238000A460EF0D3FC204604F281712A460CF06F
:107248000EF894F87F2794F88037204603EB022243
:1072580051460232E3E000BFE5F90008C4B2010874
:107268005C9801085E9801089D98010860980108DB
:1072780005350108912F0108E2190023102182F831
:107288007F37697092F87E27BF1A132F20DD94F894
:107298008627FF2A1CD194F8882794F8893704F2A6
:1072A8008A7043EA0223A4F80C3A0EF061F994F8C4
:1072B8008E37C4F8100A84F80E3A04F28F700EF074
:1072C80057F994F88777C4F8140AC4F8080A0AE04A
:1072D800A4F80C3AC4F8103A84F80E3AC4F8143AF0
:1072E800C4F8083A002704F6042AD4F88036504631
:1072F80001210022984788B9B4F80C3A2BB1D4F888
:10730800102A591E0A44B2FBF3F34FF6FE7B5B4585
:107318008CBF4FF0000B4FF0010B01E04FF0000B5A
:1073280094F88227BBF1000F05F1020894F8813721
:107338002046009241460CBF802200220BF0C7FF76
:107348002046294612220CF05FF80028C0F2C483B8
:10735800BBF1000F00F0C1830021D4F880365046FD
:107368000A469847002840F0B883B4F80C2A20232E
:1073780018931990D4F8101A13461AB14B1E1344D7
:10738800B3FBF2F3CF4803928DE80B0018AACE495D
:10739800282000230BF030FCD4F8943698470023BB
:1073A800A4F83837B4F80C3AC4F83407A4F83A37D4
:1073B80001231F4084F83E37204687EA030A0EF06F
:1073C800E2F8CAF1000A5FFA8AFA024638B1206880
:1073D8005146801A204400F27F700EF0FFFBB4F88B
:1073E8002C37512201339BB2A4F82C37AA704422BF
:1073F8000921EA706B711A12FF232A7185F8069029
:107408000A46EB712F7205F109000EF0E7FB2046E2
:10741800414610220BF023FF2046294612220BF08A
:10742800F3FF002880F2598356E3D4F8943698473E
:107438004FF0000BE319C4F8340783F87FB7102323
:107448006B7094F8822705F1020A94F88137204678
:10745800009251465A460BF03AFF2046294612221E
:107468000BF0D2FF5845C0F23783984B4FF02008F5
:1074780000931E205B46944918AACDF86080CDF889
:1074880064B00BF0B9FB94F83E3753B9904A282002
:1074980000928D4918AACDF8608019930BF0ACFBC7
:1074A8001BE35B4698465A464FF0070B04EB0B016B
:1074B80091F87F17FF2921D06AB1012A16D104EB70
:1074C8000B0090F880E790F88107904640EA0E207C
:1074D800A4F838070AE004EB0B0000F5F060089107
:1074E80006920EF045F80346069A089901F00F0136
:1074F80001318B4401325FFA8BFBD7E70BF1010BAB
:107508005FFA8BFBCBEB0702274497F87E17B4F89A
:107518003A07511AB4F83877D4F8142A89B200FB1C
:107528000722C4F8082A4FF6FF729742A4F80C1AEB
:107538000CD1684A202318938DE884000023282062
:10754800614918AA19930BF057FBC5E2A3440BF243
:107558007F7C6046D4F88C26CDF818C008939047F5
:10756800089B0027C31AD3F1000B4BEB030B202316
:107578001893594B1E200093B4F83837CDF808B04B
:107588000193CDF80C8094F83E374F49049318AA1C
:107598003B4619970BF030FBDDF818C0BBF1000F24
:1075A80000F0A08004F6042BD4F8843658466146CF
:1075B8003A469847B8F1000F03D094F83E37022BAB
:1075C80006D0204651464A4644230BF096FE012732
:1075D80020460DF0D8FF2368B4F83887181A2044DD
:1075E8004FEAE80200F27F7008F00703815C4FF071
:1075F800010808FA03F30B43835494F83E37022B2F
:1076080056D1204600210BF094FE4FF6FF739842A6
:10761800814631D120231893304B002700931E2038
:107628003B46294918AA19970BF0E6FAB4F82C3703
:10763800502243449BB284F83E77C4F8347784F8E8
:10764800287AC4F8207AA4F82C37AA700322EA70A2
:107658006B711A12B123AB7175232A71EB7129462C
:10766800062220460BF08CFE3A46D4F88836584657
:107678004146984747461BE097B1204629461222C3
:107688000BF0C2FE00280BDA154A2023189300924B
:10769800002328200C4918AA19930BF0ADFA1BE215
:1076A800B4F8183A4B4502D220460BF003FC0027E9
:1076B800B4F838370133A4F83837002F00F00D82BA
:1076C800AAE600BFBB98010860980108EB9801087A
:1076D800F19801080D990108249901084C990108AD
:1076E800169A0108B8F1000F40F0F781204651467C
:1076F8004A4680230BF001FE20231893CF4B282005
:107708000093B4F83837CE49019318AA4346CDF808
:1077180064800BF071FA7FE64FF0000827444FF0C1
:10772800100A414687F87F87204685F801A00BF0AC
:1077380000FE4FF6FF77C71B18BF0127474594F88F
:10774800823714BF8021442194F881276120E97091
:107758000B216B71A8702A7185F806900A4605F10D
:10776800020BE81D0EF03AFA2046594652460BF035
:1077780076FDB44B28208DE88800B14918AA434605
:107788004FF02009CDF86090CDF864800BF034FA02
:107798002046294612220BF037FE4045C0F29C8154
:1077A800D7B9A94B18AA00931E203B46A449CDF887
:1077B800609019970BF020FA84F83E77C4F8347774
:1077C80084F8287AC4F8207AD4F8883604F6042095
:1077D80001213A46984780E1022384F83E37204643
:1077E8000BF068FBD4F894369847C4F8340774E172
:1077F800E31993F87E576B1E0F2B00F26E8104F28B
:1078080085734046C8F800300DF0FEFE002800F0F1
:1078180064817F1BD8F8005004EB0709054409F27E
:107828007F791895189B4B4506D3D8F800004B452F
:10783800A5EB00051AD324E01A7812F0F00FF4D162
:1078480018A80DF0E1FE2F232B70189905F1010CF3
:107858008C45824604D0604652460EF0A4F9844610
:10786800189B0CEB0A0553441893DBE71B7803F0CD
:10787800F003302B05D118A80DF0C6FE189B18444C
:107888001890189B4B4509D21A78FF2A06D103F1A4
:1078980001092744002387F87F3701E04FF00009EA
:1078A800D8F8003000225A5504F2BC4704F2746A32
:1078B8003B6C002B00F01181384640210EF0CCFEC5
:1078C800854202461CD3D8F800B0384659460EF017
:1078D8004FF9A8B9D4F8D4C6BCF1000F0AD1786C16
:1078E8003B6C18B159464A46984709E058464946FC
:1078F800984705E00090394658205A464B46E047DD
:1079080058375745D4D1E8E061220025102784F87C
:10791800812784F8841744220B2184F8833784F85C
:10792800822784F87F570A4684F8807784F88597F9
:1079380004F286700EF052F9204604F281713A463C
:107948000BF08DFC2046514612220BF05DFDA8423B
:10795800C0F2C280D4F89036012029462A462AE08F
:1079680061220025102784F8812784F8841744228F
:107978000B2184F8833784F8822784F87F570A46D6
:1079880084F8807784F8859704F286700EF026F9DB
:10799800204604F281713A460BF061FC20465146BC
:1079A80012220BF031FDA842C0F2968028462946E3
:1079B8002A46D4F8903698478FE0D4F8CC369847C2
:1079C8008BE094F8863794F885571B0443EA0565DD
:1079D80094F88837D4F834072B4394F8875743EA48
:1079E800052548B1D4F894369847D4F83437C01AE6
:1079F8004FF4FA63B0FBF3F00027D4F89436C4F8D8
:107A080034772D1A98478046202318930F4BD4F8C3
:107A180098961E208DE82800094918AA3B46199710
:107A28000BF0EAF8284639463A46C84784F8287AD7
:107A3800C4F8245AC4F81C8A4FE000BF60990108B2
:107A4800609801086D9901089A990108B19901088F
:107A58000022102084F8800784F87F2720460091B0
:107A680004F281710BF033FC20465146D6E4D4F879
:107A7800E416030101EB030ECB5A06998B4208D09A
:107A8800DEF80C309D4228BF1D460130B842EEDBBF
:107A980001E00246F9E7002A05DA0023C8F80030B9
:107AA800C8F8043011E018A8C4F8F05604F2E461EC
:107AB8000BF0A4FB199B19A8C8F800301A9BC8F84A
:107AC8000430002319930DF076FD40460BF050FA70
:107AD80040460DF070FD00E00F26079B0F2E1E702C
:107AE80040D120231893714B0025009328202B4662
:107AF8006F4918AA19950BF07FF894F83E370BB91F
:107B08000020CFE0D4F8883604F6042029462A4617
:107B1800984784F83E577CE000280DDA2023189314
:107B2800644B0024009301906149282018AA234639
:107B380019940BF061F8E3E794F83E57D4F89436BB
:107B4800C5B19847D4F83437C01A40F6B8339842CC
:107B580008D994F83E37022B06D0D4F894369847C3
:107B6800C4F8340701209DE020460BF0A3F9002853
:107B7800C6D0F2E79847D4F8303794F83C27C01AB3
:107B8800B2B142F210739842ECD9D4F8943684F822
:107B98003C57984720231893474BC4F8300744496B
:107BA8000093282018AA2B4619950BF025F830E0E9
:107BB80043F698239842D5D9B4F82C37402101339D
:107BC8009BB284F87F2784F8811784F882270C21D8
:107BD8001A12A4F82C3784F8843784F8832784F899
:107BE80080670A4604F285700DF0F8FF204604F21B
:107BF800817132460BF033FB012551461222204693
:107C08000BF002FC84F83C57D4F894369847C4F833
:107C18003007284646E0642B3FF47EA8762B08BF41
:107C280003260EE0732B07D194F88737002B14BF77
:107C38000A260B26FFF770B8752B06D06B2B08BFEA
:107C4800092618BF0F26FFF767B80626FFF764B89E
:107C5800662B3FF461A809D8632B02D10726FFF7EA
:107C68005BB8652B11D0452B12D10EE0732B02D1D6
:107C78000426FFF751B8752B02D10526FFF74CB83B
:107C8800682B05D10026FFF747B80826FFF744B848
:107C98000F26FFF741B812F0300F0CBF0E260D2645
:107CA800FFF73AB85FB0BDE8F08F00BFCD99010883
:107CB80060980108E8990108009A01082DE9F04F39
:107CC8008046ADF5697D202304AFC7F89031904B0D
:107CD8000025C7F894511E208DE808018D492B46D0
:107CE80007F5C8720AF088FF8B4B1C6884F83E576A
:107CF800C4F8345784F8285AC4F8205AD4F8E83617
:107D0800D4F8E45605EB0316B54204D0281D0DF04F
:107D180052FC1035F8E74FF0FF33C4F8F0367F4BCC
:107D280000254FF02009C4F8E8561E20C7F89091A6
:107D3800C7F894517A49009307F5C8722B460AF0A0
:107D48005BFF214651F80C3F04F27F76C4F8A73751
:107D58004B682046C4F8AB378B682822C4F8AF3785
:107D680031460BF029FB031EFB60C7F89091C7F85A
:107D7800945101DA6B4BC0E06B4B07F5C872009366
:107D88001E202B4666490AF037FF684B07F5C87274
:107D9800154659681868083303C565492A468B4251
:107DA800F6D118681B7928602B71D1F805004B7A39
:107DB800C7F8F40087F8F83007F5C87204F2B3730F
:107DC800154603CD596007F5D4718D4218602A46CF
:107DD80003F10803F4D1286804F24B1118602A79DA
:107DE80004F5FA601A7180220DF0D2FED7F8F4007B
:107DF80004F11809C4F8500897F8F83007F158004A
:107E080084F8543849460DF0E9FB04F65503FB6045
:107E1800D7F8E430FD6D53BBE02D2ADDD93D84F859
:107E2800553804F6570A022384F85638AB465346A9
:107E38001BF1FF3B09D3BB600EF06EFBBB68C0B201
:107E480018700028F7D00133F2E700230AEB050089
:107E58000AF805303146D62201300DF099FEF9684E
:107E680007F158000A4606F063FA054602E0314D6C
:107E780000E0314D07F158004FF0200A06F028FACB
:107E8800C7F890A16DB12D4A0023C7F8943132206C
:107E98008DE82400224907F5C8720AF0ADFEFD609E
:107EA8009CE3274BC7F894511E2000931C492B468E
:107EB80007F5C8720AF0A0FEF9684FF480722046F0
:107EC8000BF0A2FA1F4BC7F890A1C7F894511E20D7
:107ED800009313492B4607F5C8720AF08DFE204619
:107EE80031464FF4C0720BF067FA031EFB60C7F807
:107EF80090A1C7F8945129DA134B0093FB683220FC
:107F08000193074907F5C8722B460AF075FE65E329
:107F1800D0A60108C9A601081407002016A7010861
:107F2800F9A601082DA7010849A701087C930108B3
:107F380094930108F0FBFFFF00FCFFFF64A7010812
:107F480079A7010891A701089DA70108A24B1E2047
:107F58000093A2492B4607F5C8720AF04DFE294640
:107F680004F5A0739C2207F1F400FB600DF036FEC7
:107F78008022C7F8F82094F8493107F1FC0013F083
:107F8800010F0CBF09250A25FB68691C19440BF071
:107F980082FE07F5847002F061FEFB6805F1880B2C
:107FA80013F80B308022DB0748BF05F1890BFB680B
:107FB8000BF10101194407F58A700BF06CFEFB68A0
:107FC8000BF1820A13F80A304022D80748BF0BF198
:107FD800830AFB680AF10101194407F590700BF058
:107FE8005AFEFB680AF142055B5D4022D90748BF8B
:107FF8000AF14305FB68691C194407F596700BF0F4
:108008004AFEFB6805F1420A13F80A3007F59C702E
:10801800DA0748BF05F1430AFB680AF10101194470
:1080280040220BF038FEFB680AF142055B5D4022F6
:10803800DB0748BF0AF14305FB68691C194407F5CB
:10804800A2700BF028FEFB6805F142015B5C402240
:10805800D80748BF05F14301FB6801310B441946B5
:1080680007F5A8700BF017FED7F8F8A0AAF11003CF
:10807800B3F5F87F00F2AC80012200233A61FA617F
:108088003A6307F11000314652467B61BB613B629F
:108098007B627B63BB630BF0FEFD8346002866D1E1
:1080A80007F1100007F1FC010BF067FC002804DB66
:1080B80007F110000BF0A4FE8AE007F5B4730093F3
:1080C80007F11C0007F1100107F59C7207F5907382
:1080D80009F066FF8346002849D107F5BA73009373
:1080E80007F1300007F1100107F5A27207F5967342
:1080F80009F056FF8346D0BB07F1100007F11C01B9
:1081080007F130020BF0CCFE834680BB07F11C0060
:1081180007F1100107F5A87209F004FD834630BB8A
:1081280007F1100007F11C0107F5907209F066FDD0
:108138008346E0B907F11C0007F1100107F59672B4
:1081480009F0F0FC834690B907F1100007F13001FF
:1081580007F11C020BF0C5FE834640B907F1100079
:1081680007F5C871D7F8F8200BF0D7FC834607F15C
:1081780010000BF045FE07F11C000BF041FE07F163
:1081880030000BF03DFE5B461BB1154D2B431D46E1
:108198002DE0D7F88051EDB907F5C8731A78CAB938
:1081A8005A78022A16D107F5C9710A7832B10AF14C
:1081B800FF321A4491420DD20131F6E701315A1AC1
:1081C8005244282A12DC07F130000DF0E1FC0EE0E1
:1081D800044D0CE0044D0AE0B6A70108F9A6010811
:1081E800B0FBFFFF00FCFFFFF0FBFFFFCD4D07F1E9
:1081F800F40006F06DF8002D40F080813621402211
:1082080007F5F6700DF0EAFC07F50B705C214022CB
:108218000DF0E4FC07F5C87307F13002A85C93F889
:108228005C1093F89C20013541404240282D83F88A
:108238005C1083F89C2003F10103EDD107F5C875A4
:1082480000232B606B60B84BDFF804C3EB60FB6066
:1082580003F15443DFF8FCA2DFF8FCB203F5A623D0
:1082680003F26763284607F5F6714022C5F808C08F
:10827800C7F808C0AB61C5F814A0C5F810B00DF078
:10828800E3F90021142207F1F4000DF0A7FC802285
:10829800284631460DF0D8F9284607F1F4010DF0CB
:1082A8000BFA00232B606B60FB68D7F808C0EB6003
:1082B8009E4B284607F50B714022C5F808C0AB61F4
:1082C800C5F814A0C5F810B00DF0BEF91422284660
:1082D80007F1F4010DF0B8F9284607F11C010DF07B
:1082E800EBF90021142207F1F4000DF077FC0021CE
:1082F800DC2228460DF072FC04F2FF73494607F1B0
:10830800F4009A460DF06AF9D7F8F890A9F110032D
:10831800B3F5F87F38D8514607F1F4002A4606F03D
:1083280007F88246002833D1D7F8803173BB2B7801
:1083380063BB6B78012B29D107F5C973197841B153
:1083480009F1FF322A44934220D2FF291ED101337A
:10835800F4E7581C2A1A4A44222A0AD1997312228D
:1083680073490DF005FC734B734A002808BF134688
:108378000DE0142A0AD107F11C010DF0F9FB6D4B31
:10838800002808BF002302E06C4B00E06A4B9A46C5
:1083980007F1F40005F09CFF5346002B40F0B08035
:1083A80007F1300C04F2F4639946E64607F1400AF7
:1083B80063464A4603CB08325345C9F80000C9F85A
:1083C80004109C469146F3D1D14604F2047C07F18F
:1083D80050034A4603CA9A42CCF80000CCF804106D
:1083E80091460CF1080CF4D1D14604F2147C4A46AB
:1083F80003CA9A42CCF80000CCF8041091460CF15C
:10840800080CF4D103CBC4F82407C4F828179EF845
:1084180020209EF8213043EA0223A4F82C379EF846
:10842800223084F82E37D7F853002860A3682868CC
:108438000BB1984701E00EF047F80023FB606B6032
:108448003F4B4FF02009C5F8009000933D492A465C
:108458001E20FB680AF0D0FBD4F8C8369847B4F859
:108468002C374FF0500E01339BB284F881E74FF060
:10847800020EA4F82C3784F882E784F884374FEA90
:10848800232EB123B4F8001A84F885376823B4F88A
:10849800022A84F88637FF2384F887370B1284F87A
:1084A8008837131284F88A373B7B84F883E784F88B
:1084B800891784F88B27314684F88C3784F88D0720
:1084C80084F88E3784F88F370F2220460AF058FF39
:1084D8003146204612220AF097FF061E3EDAFB6854
:1084E800C5F800906B60184B32208DE8480015499C
:1084F8002A46FB680AF080FBFE606FE0062300E076
:108508000823FB60114A2023C7F890310023C7F8DD
:108518009431322000920B4907F5C8720AF06CFBBF
:108528005CE000BF90FBFFFF89ABCDEFF0E1D2C369
:108538009E930108A0FBFFFFF0FBFFFF00FCFFFF7D
:10854800D8A70108F9A60108EEA70108C2A70108E3
:108558000123456776543210FEDCBA98FB68C5F8EB
:1085680000906B60194B1E20009319492A46FB683E
:108578000AF042FBD4F89436984706462046294626
:10858800FEF794FA40B12B78A3B1D4F89436984703
:10859800801BB0F5FA6FF1D320230E4A2B6000231D
:1085A8006B60322000920A492A460AF025FB4FF0F8
:1085B800FF33ECE1202285E80C00074A1E200092D8
:1085C80003492A460AF018FB0CE000BF0FA801086F
:1085D800F9A6010828A8010849A80108FB68002B8A
:1085E80040F0A8813B7B07F1F4010A224FF4D83010
:1085F80087F8F43002F0F2FAFB6807F5C874636094
:10860800BC4B2026BC4D26601E200093BB4900238E
:1086180022460AF0F1FA07F1F4012A78B84806F080
:10862800BDFB07F1F4010A224FF4007002F0D6FAFC
:10863800FB6826606360B34B1E200093AF4900239C
:1086480022460AF0D9FAB04807F1F4012A7806F070
:10865800A5FBAE4B1B78042B0FD1FB68266063602B
:10866800AB4B1E200093A549224600230AF0C4FA0A
:10867800A848A9492A7806F091FBA84E0022B168BB
:1086880040F2072003F08DFD40F20720214603F059
:1086980095FD227994F800A0E37807F1F4000092A0
:1086A80040219F4A10F0EEFDB146BAF1000F04D107
:1086B80097F8F430002B40F06C819A4B9A7962B1AC
:1086C8009A7912B19A7900229A71974BD3F800A03F
:1086D8005E68BAF1000F40F06E81B8F1000F7CD0EF
:1086E80002200146112208F07DFA0728E8460646CE
:1086F80072D81022002120460DF070FAD9F808909F
:108708000223238007F158054FF0FF3309F10900D0
:1087180031462B6003F0EFFC00230822027002713F
:1087280043708370C370437183718218C371E15CB5
:10873800D1540133082BFAD11422494641F20200E0
:1087480003F02FFD41F20200294603F037FD0DF03A
:10875800E7F92B6803602B68002B3ADB0C2107F143
:10876800300007F0BFFB50232370B1232371682327
:108778006371FF23A3714FF0000E022207F130034B
:1087880003CB627084F802E084F803E0C7F897012D
:1087980018681623AB703323EB70E0232B71012389
:1087A800C7F89F01AB713046BB23EB71C7F89B112B
:1087B8002A8085F805E008F045FA034648B91022F2
:1087C800019283220292009530462146132208F036
:1087D8006BF9304608F0E0F9C5462023534A236078
:1087E800002363601E200092444922460AF004FADE
:1087F8004F4B98461C6804F2BC4504F274692B6C14
:10880800002B6AD095F84930002B60D0B4F82C378B
:10881800402201339BB284F881270122A4F82C3727
:1088280084F8822784F884371A12B12384F88537AC
:10883800652384F8863784F8832728463F210DF07E
:108848000BFF04F2877B0246294658460AF088FC4B
:1088580005F149060BEB000338603F2130467B6089
:10886800BE600DF0F9FE06467B68D7F800C0BA680E
:108878000133FF210BF80C101846114632460DF053
:1088880087F904F2817A3044CAEB000020F00F0B1C
:108898000BF11006F3B2191AC9B220440A4600F2C5
:1088A8008170BB600DF09AF92046514632460AF0B5
:1088B800D6FCBB68360A84F87F6784F88037204680
:1088C80004F27F710BF112020AF09EFD05E02046CA
:1088D800294695F848200AF052FE58354D458ED164
:1088E800D8F8000090F83E370BB90AF0B5FD07F04C
:1088F8008FFAD0E053A801081A120020C9A601086F
:1089080078A8010892A80108B6A80108E80500207F
:10891800D4A80108F5A80108C4B20108040600207B
:108928000BA90108B8000020AC05002051A90108D6
:1089380014070020FB680D2B40F0AD802023C7F8FA
:108948009031584B0024C7F894411E200093564993
:1089580007F5C87223460AF04FF9EFF3108572B68F
:1089680003F066FF514B98420ADD514B1C6834B145
:1089780003F05EFFA042B4BF0024012400E00124FC
:10898800284608F0EDFF0CB92460FFDE0023FB60E9
:1089980081E0202384E80804464B224600931E20E9
:1089A800414953460AF028F907F1F4012A78424868
:1089B80006F0F4F981E65FFA8AF3462B01D13F4BC2
:1089C80035E014D81E2B31D005D80A2B2CD0142B07
:1089D80031D13B4B2BE0322B01D13A4B27E03C2BDA
:1089E80001D1394B23E0282B25D1384B1FE06E2BC2
:1089F80001D1374B1BE00BD85A2B01D1354B16E070
:108A0800642B01D1344B12E0502B14D1334B0EE0C0
:108A1800822B01D1324B0AE08C2B01D1314B06E07D
:108A2800782B08D1304B02E0304B00E0304B204629
:108A38004021304A03E0204653462F4A402110F097
:108A480021FC01463F2914D8BAF1820F04EB01003A
:108A5800C1F140010DD1731EDBB20C2B05D8274A9A
:108A680052F823300BB1264A01E03346254A10F06C
:108A780009FC2023244ABB650023FB651E200092C5
:108A8800094907F158020AF0B7F821462A781F4821
:108A980006F084F921E6F86807F56577BD46BDE874
:108AA800F08F00BF64A90108C9A601087FC84F3A22
:108AB800A80500208BA90108B1A901087CA6010816
:108AC800B7A601088CA6010883A601089BA6010881
:108AD80048A6010860A6010852A601086FA6010869
:108AE80039A6010834A601083FA60108C1A6010855
:108AF800A6A6010813A901082FCE010824AA010877
:108B080011A901082DCE010816A9010839A90108E3
:108B18002DE9F04F042089B00CF088F8894D8A4B74
:108B28008A4F8B4A0126BB602E705368516823F028
:108B3800706321F0706143F08063864C516053602C
:108B4800E369242043F0C053E361834B1E6003F0C4
:108B580073FF4AF2A5539842019513D124204FF68A
:108B6800FF7103F079FF7D4B1A6842F004021A6026
:108B78001A6842F002021A603B6943F004033B6141
:108B880030BFFEE7764A00255368764843F44073C1
:108B98005360A2F54C32A2F50472D368724943F0CF
:108BA8008073D360714B80465D601A6842F00102A1
:108BB8001A606F4BFB60A36943F00103A361A369CB
:108BC80043F40063A3610368B3FBF1F399B2694B03
:108BD8001A8822F45C721204120C1A8042F20F7284
:108BE8009A8519851D869E821A8C22F0010212042C
:108BF800120C1A841A8C9E88198B22F00E0221F00E
:108C080073010904120426F44076090C120C360488
:108C180041F0600142F00302360C9E8019839D8664
:108C28001A841A8B22F008021204120C1A831A8C66
:108C380022F010021204120C1A841A8C9E88198BC6
:108C480022F0E00221F4E6410904120426F4406609
:108C5800090C120C360441F4C04142F03002360CC3
:108C68009E8019831D871A841A8B22F400621204CD
:108C7800120C1A831A8C22F480721204120C1A84B1
:108C88001A8C9E88998B22F4606221F07301090482
:108C9800120426F44056090C120C360441F0600107
:108CA80042F44072360C9E8099839D871A849A8B71
:108CB80022F008021204120C9A831A8C22F48052B1
:108CC8001204120C1A841A8C9E88998B22F4005272
:108CD80021F4E641120426F480460904120C3604F5
:108CE80042F48052090C360C9E809983A3F84050B8
:108CF8001A849A8B22F400621204120C9A831A883E
:108D080092B242F080021A801A8892B242F00102AE
:108D18001A80B3F844206FEA42426FEA524292B294
:108D2800A3F84420144BA16953F82530AA000B433B
:108D3800A361124B33F81530ADF8183005BB10237A
:108D48001FE000BF7C0F00200050000800ED00E08D
:108D5800000001400010024020000E420070004058
:108D6800002004E0AC00002040420F00001000E0AA
:108D78000003FA05002C014058AA010868AA010856
:108D880018238DF81B30C04B4FF00309D05806A9A3
:108D98008DF81A90013503F086FDBC4B4FF4005254
:108DA800042D5A61BED1A36908AF43F00903A3613A
:108DB80027F80C5D39464823B5488DF8173003F07D
:108DC80072FDB44A4FF0000A9389012623F010037C
:108DD8001B041B0C93811B238DF8183006A8052350
:108DE8008DF819304FF0080B8DF81AA08DF81B601C
:108DF80003F040FE062306A88DF819308DF818B048
:108E08008DF81AA08DF81B6003F034FE304606F08A
:108E180007F9A14B3422DA60D8F800304FF47A729F
:108E2800B3FBF2F39D4A013B53609D4BF02183F85D
:108E380023100721C2F808A01160D02283F823204C
:108E48006369DFF8748243F0400363614FF40033D1
:108E5800C8F8143006A806938DF81CA08DF81DB02C
:108E68008DF81E6003F094FD38468DF814908DF847
:108E780015508DF816A08DF8176003F0FBFD292317
:108E880038468DF814308DF815908DF816A08DF8A9
:108E9800176003F0EFFD834A536813F0020300F0F4
:108EA800DF81136843F00803136003F0ABFC7E4ACC
:108EB80013889BB243F00303138003F0B1FCEFF374
:108EC8001083009372B6242003F0B6FDC0F30F3070
:108ED8000A2816D0009808F043FD744B6FF07F42C3
:108EE8001A600BF005FC7D2003F0B4FC002800F0AC
:108EF800E7806F4B01221A70636A43F080736362E4
:108F0800DEE0242003F098FDC6B2242003F094FD8F
:108F18004FF6FF71C0F3032A242003F09DFD172E9E
:108F2800D8D8BAF1020FD5D8BAF1010F05D0BAF1E5
:108F3800020F0CBF0221002100E00321304608F097
:108F480013FD18227243DFF87491002509EB020122
:108F580091F806B059F80200564A8B8802EBCB010B
:108F6800069507950595C8F814304D604849039350
:108F7800431A584242F83B5058415946029203F06E
:108F88007DFC039B029ABAF1010F8DF81C500693E1
:108F9800154604D0BAF1020F03D0102302E00823CB
:108FA80000E00C238DF81D3006A801238DF81E3033
:108FB80003F0EEFCBBF1090F0FD8BBF1040F8CBF17
:108FC8000E230D238DF8153000238DF81630384602
:108FD80001238DF8173003F04DFD324A136823F052
:108FE800030343F0010313602D4B1A6942F0040296
:108FF8001A6130BF1A6906A822F004021A61182300
:1090080003FB0696B279B3880026C8F8143045F8F1
:10901800326005EBC2056E60234D0693079603F098
:10902800FBFC2B8823F002031B041B0C2B8003F092
:10903800F7FB4FF40033C8F81430AB8823F0020371
:109048001B041B0CAB80236823F480332360236844
:1090580023F480232360236843F480332360059638
:10906800312003F0F7FB059B01330593059BB3F50E
:10907800A06F01D00028F3D0312003F0EBFB0028CB
:1090880040F01681FDF7CEF884B7010800080140CA
:10909800000C0140002C01400020024010E000E0DC
:1090A80000ED00E00070004000280040F4140020AB
:1090B800B4050020281100200004014058010020B8
:1090C800242003F0B9FCC0F30F300A280ED045F273
:1090D8005552834B1A6006225A604FF4EA729A601E
:1090E8004AF6AA221A604CF6CC421A60019B1B78F9
:1090F800002B27D07B4B1A887B4B1A807B4B1A8816
:109108007B4B1A807B4B1A887B4B1A807B4B1A88C7
:109118007B4B1A807B4B1A887B4B1A807B4B1A78C7
:109128007B4B1A707B4B1A787B4B1A707B4B1A78E7
:109138007B4B1A707B4B1A787B4B1A707B4B1A68E7
:109148007B4B1A60A369032543F00803A361E36915
:10915800784843F48043E3614FF40053ADF8183086
:1091680018230DEB03018DF81A508DF81B3003F00E
:109178009AFB4FF400436F4806A90424ADF8183051
:1091880003F091FB4FF480436A4806A9ADF8183004
:109198008DF81B4003F087FB4FF40073654806A960
:1091A800ADF8183010238DF81B308DF81A5003F0E5
:1091B8007AFB07F0C3F9604B60491A8802F4415200
:1091C80042F441721A809A8B22F400621204120C43
:1091D8009A8307221A821A8892B20A801A8892B24F
:1091E80042F040021A8007F0CBF9204607F0D8F881
:1091F80007F0A4F907F0C4F99F2007F0D1F8FF2081
:1092080007F0CEF80646FF2007F0CAF80446FF200C
:1092180007F0C6F80546240207F090F944EA064428
:10922800474B2C439C4202D04C3B9C4254D107F004
:10923800A7F9802007F0B4F807F080F907F0A0F943
:10924800502007F0ADF807F079F907F099F90120F7
:1092580007F0A6F8002007F0A3F807F06FF93BE045
:10926800384A137013701670412003F0F3FA00287F
:10927800FAD0236A012243F480732362324B1A60C6
:1092880003F0C0FA03F0CCFA304A93889BB243F05B
:10929800100393800023138147F6FF73938193880B
:1092A80023F010031B041B0C938003F0B9FAFEE5AE
:1092B800274B01221A60392003F0CCFA0028FAD093
:1092C800636823F0030343F002036360636803F0F9
:1092D8000C03082BFAD1FDE509B0BDE8F08F00BFFB
:1092E80000300040004C0008D4000020024C000868
:1092F800DA000020044C0008D2000020064C0008C8
:10930800C8000020084C0008D00000200A4C0008C3
:10931800D80000200B4C0008D90000200C4C000895
:10932800D60000200D4C0008D70000200E4C000885
:10933800CC000020000C014000380040BE10002086
:109348008D25BF00201002403C0442420028004006
:10935800600042422DE9F04FB44BDFB01B78099012
:1093680023B901200BF092FE00F04BBCB04EB14F78
:10937800336830461B6C984700B3AF4B1B78EBB98A
:109388003B78DBB95221052009F0B2FC03F0BCFBA5
:10939800AA4B1B68C01AAA4B1B78002B00F0A980A7
:1093A8000522013BB3FBF2F3072B28BF07234FF439
:1093B8007A7202FA03F3984280F09B803B78002B84
:1093C80000F01F849F4D2B78002B40F083805221A2
:1093D800062009F08DFC0120FEF770FC04460028E9
:1093E80052D0994B1B78002B4AD1336890481B6B9D
:1093F8009847002844D102F0AFFD062C00F0FD8309
:10940800082C14BF4FF47F074FF0FF1720233E931B
:109418008E4B00253EAE32468DE8180028202B469C
:109428008B493F9509F0E8FB1421012003F0D0FC9B
:10943800884B01213E931C233F937A238DF80831F2
:1094480001238DF809318DF80A5143979DF80931A8
:1094580040950F2B0CBF804BADF81001304604BF70
:10946800449345964195FDF739F903F04DFB0446C1
:1094780003F04AFB001BF928FAD93046FDF732F908
:1094880001200BF003FE22E020233E93734B3F9014
:1094980000931E206E493EAA234609F0ADFB012326
:1094A8002B70674B40201C70002108222346009433
:1094B800019403F0FDFC6A4B2A211B78042B0CBF96
:1094C8000820072009F014FC052001F007FC0620FD
:1094D80001F004FC634B1B78002B40F09083099B40
:1094E800002B40F08C835E4B1B78032B40F0878366
:1094F80087E320233E935C4B00253EAC00931E205F
:10950800534922462B463F9509F076FB2B4600210E
:10951800012240200095019503F0CAFC03F04AFFA0
:10952800294680221EA80CF059FB20464FF48C5186
:10953800802207F05CF89DF8F83013B1012B11D0A8
:1095480023E09DF8FB309DF8FA201B0443EA0263F0
:109558009DF8FD2013439DF8FC2043EA0223CDF833
:109568007A3015E09DF8F980B8F17E0F0DDC42469F
:109578000DF17A000DF1FA018DF878300CF008FB46
:109588001EAB984488F8025002E0FF238DF878302B
:109598009DF87830FF2B1FBF9DF83B219DF83A11AD
:1095A80042EA0122ADF8BA20304A0D9200220E920A
:1095B80033B1012B24D02E4B254603F1100E0EE0BB
:1095C80041F233624FF6FD71DDF87A30BDF8BA50DA
:1095D8000E936B1E9BB28B4288BF154641E12A460B
:1095E80018685968083303C273451546F7D12046F1
:1095F8000DF02AF82146421C0DF17A000CF0C8FA49
:1096080041F233624FF6FD71A346BDF8BA506B1EA6
:109618009BB28B4288BF15460DF17A0202F1010A0E
:1096280012783ABB8BF8002064E000BFC00000202D
:109638007812002024150020410F0020BC050020CE
:10964800E90500201015002025150020A0AB010811
:10965800C9A6010820AC0108195F0008C0AB0108C1
:10966800E80500205006002070AA0108F0BA010899
:1096780001AC0108242A34D151460A78894610469B
:1096880001310A9108920CF093F80A998046002853
:10969800F3D1089A5F2AF0D0B9EB0A0225D0022A42
:1096A8001CD15146AC480CF063FA8246B0B916A8F2
:1096B80006F026FCDDF8608056AACBEB0202424594
:1096C80008D95846169942460CF062FA16A8FCF7D3
:1096D800BCFE03E016A8FCF7B8FED046C344CA4651
:1096E80003E08BF800200BF1010B56AA934501D239
:1096F800524693E700239B468DF857314FF0040AF2
:109708000E9A002A62D1BAF1010A5FD02046602180
:109718000A920CF0A1FF0A9A8146934683B20893F5
:109728000E924FF006080E9A002A4BD1B8F10108A4
:1097380048D001200A9208F087F90CF0F1F94FF0AF
:10974800FF330360089B0A9AE62B35D8834B1FFA30
:1097580089FCD3F808B008218BF809108BF80A2087
:1097680061468BF80B208BF80C200BF10D00CDF81F
:1097780028C002F0C0FC0146DDF828C00A1A12B25F
:10978800624506DA5EAB1A4412F8802C01F8012B08
:10979800F4E709F10802D2B2594641F2100002F08A
:1097A80000FD41F2100016A902F008FD0CF0B8F90E
:1097B800169B0360179B0E930CF0B2F903884FEACF
:1097C800D33BB0E7012008F03FF999E72022BBF12D
:1097D800000F13D0624B4FF0000816928DE8180066
:1097E800322043465F4916AACDF85C8009F004FA96
:1097F80033685D489B6D984760BB39E00DF14808B8
:1098080016925A4A404614210F92CDF85CB0CDF812
:1098180048B0CDF84CB0CDF850B08DF854B0CDF874
:1098280040B0CDF84480FCF7B0FD0D9A0FA912683E
:109838000DA890474E4A1E208DE81400D8F8002045
:10984800484902925B4616AA09F0D6F94046FCF749
:10985800FCFD06E0D0F81220464B9A4208D1CDF81C
:10986800388002200121062207F0BCF9424B18601B
:10987800414B1868072857D80223ADF858302B0AEF
:109888008DF85A309DF83B30DFF8FC908DF85C304D
:109898009DF83A3016A98DF85D309DF83930D9F821
:1098A80000A08DF85E309DF838308DF85B508DF84B
:1098B8005F304FF4FA53C9F8003001F01BFA8046C4
:1098C80020239DF83BE09DF83A009DF839109DF85B
:1098D80038203E93B8F1000F11D0DFF8B0C0002354
:1098E8000290039104928DE800500595CDF81880F8
:1098F80032201C4922463F9309F07EF90EE01F4BA7
:1099080002908DE808400391049205951E201549A0
:1099180022464346CDF8FC8009F06EF9C9F800A04C
:10992800B8F1000F07D001E04FF0FF3803F042FD17
:10993800B8F1000F2CDB124A0023136001223A70A1
:1099480020223E920F4A1E200092064922463F934B
:1099580009F052F980E000BF82AA0108040600203D
:1099680085AA0108C9A601087812002038AC0108A8
:10997800A8AA01080000534C10120020ECAA010804
:10998800201500200EAB0108F8050020BFAA010829
:109998009D4B00258DE8080128202B469B4922462F
:1099A8004FF020093F95CDF8F89009F025F93D7062
:1099B8002B46009501952A46954D4020002103F03D
:1099C80077FA2B78002B7FF4F9AC336891481B6B3E
:1099D8009847804600287FF4F1AC02F0BDFA8E4B20
:1099E800DB7903F0FF0A33B18C4B1A680132012A84
:1099F8001A6000F3E08002200121062207F0F2F845
:109A0800B0F1000CCDF82CC0DFF8189280F29380EA
:109A1800834B4FF000084FF0200B009328207B4920
:109A280022464346CDF8F8B0CDF8FC8009F0E4F8BA
:109A3800BAF1000F40F0A8807A4B02221A70BAF1EE
:109A4800000F02D1784BC3F800A0336899F80010D2
:109A5800D3F888306F489847724B1A78002A3FF439
:109A6800ADAC4FF000081D7883F800803368694872
:109A7800D3F888304146984720233E936B4B2246C3
:109A8800EDB26B4C8DE82800282043465F49CDF89D
:109A9800FC8009F0B1F82368DB072BD494F8008028
:109AA800B8F1000F26D114210F2003F091F9614B72
:109AB800614AC3F808801A601C225A607A221A7414
:109AC8000F225A746FF07F4283F812805A615A7CD1
:109AD800C3F80C800F2A0ABF584A18839A61584A5B
:109AE80008BFDB611A600123237052485549564A62
:109AF8000BF0E7FE012D05D8002D3FF45FAC4FF4C5
:109B08007F0801E0DFF850814A4C00212046FCF72D
:109B1800E5FD0023C4F8148084F82030FA23638418
:109B2800A37C204603F0FD03A374012184F824508C
:109B3800FCF7D4FD42E40222444BADF8F82035226C
:109B48008DF8FB2008228DF8FC208DF8FD208DF87B
:109B5800FE208DF8FF204FF4FA511A684FF00008E4
:109B6800196021460A9208938DF8FA8001F0C2F82C
:109B78008346DDF82CC0089B0A9A60461A6007F0F5
:109B88000BF8C34507DA43E7244A13680133012B6E
:109B9800136021DC50E720233E932D4B28200093AF
:109BA8001A4943462246CDF8FC8009F025F80323DC
:109BB80089F8003043E701232B70264B28200093B7
:109BC80002230193114922464346CDF8F890CDF877
:109BD800FC8009F011F80EE701232B701D4B28209B
:109BE800009302230193094922464346CDF8F8B071
:109BF800CDF8FC8009F000F81EE7174F06E406F0E0
:109C080007F95FB0BDE8F08F25AB0108C9A60108C8
:109C18002515002078120020B8000020201500200B
:109C280048AB0108181500201C15002087AB010857
:109C3800B8050020C005002020AC0108195F000805
:109C480020CF01086D50010828120020F8050020D7
:109C58005EAB0108D0AB01080060FF002DE9804829
:109C6800834B01221A70834B99B01B68824C13F006
:109C7800805F1AD0082002F0DFFE20600C2002F07E
:109C8800DBFE0546102002F0D7FE40EA0540606082
:109C98000021082002F0E0FE0C20002102F0DCFE8A
:109CA8001020002102F0D8FE18E013F0C04F01D0B8
:109CB8003C2310E0002B01DA1E230CE0180101D52B
:109CC800282308E0590101D5142304E06B4B5B6895
:109CD8009A07F1D40A23236000236360684A0520A9
:109CE800536A002543F0807353620AF09FFF2A21CC
:109CF800002008F0FDFF07A806F002F9614B2026B6
:109D08000093079B1E2001935F492B460FAA0F96CD
:109D1800109508F071FF5D4B1B684BB101205A4943
:109D28002A46984720B123686268002B40F08C804F
:109D3800574B584C1B78FF2B1DD0DB071BD5042035
:109D480003F022F8282002F077FE45F61B239842FC
:109D580011D1514B1A793AB11A79282000224FF6BD
:109D6800FF711A7102F078FE23684A489B6A002145
:109D7800984702F02DF94FF416500AF063FE4FF49D
:109D88007A7007F061FE454A454B464D1A602368D4
:109D980040485B6898472B78012B62D0042B60D031
:109DA800414E33687BBB414F3C6854BB40F62C2086
:109DB8000BF0C0FE20B34FF42073036008238380A8
:109DC8004FF0FF33C0F8F036A0F8023A142384604D
:109DD800C0F8E446C0F8E846C0F8EC4680F83C47CE
:109DE80080F83D4780F83E47A0F8004AA0F8043ABA
:109DF800C0F81C4AC0F8204AC0F8244A80F8284A0B
:109E080038603B683360336893F83D370BB903F02B
:109E1800BDF906200AF00AFF00200BF08FF9244B49
:109E28001A780593002A4BD1224B1B78002B47D078
:109E380006F074F8002843D11F4B1B78002B3FD144
:109E48002B78012B3CD1E4E71C4902928DE80A00EB
:109E580001200D490FAA2B460F96109508F0CCFE4D
:109E680066E723680B481B690121984798E700BFFC
:109E7800EA050020CC000020AC050020007000405E
:109E88000010024048AC0108C9A60108F0050020EE
:109E9800D600002078120020B800002021500108C8
:109EA80008150020E805002014070020EC05002014
:109EB800410F0020C0000020EB0500207FAC010806
:109EC8007A4B1A789946002AA3D1794E3378012B18
:109ED80035D007200AF0AAFE2B78042B2BD0754B1F
:109EE8001888172801D805F08FF80024724B33F82A
:109EF8002400172801D805F087F80134042CF5D17F
:109F080000246E4B33F82400172801D805F07CF89C
:109F18000134082CF5D1FCF7A9F94FF416500AF0D2
:109F280091FDFCF7A3F96649FCF7B9FA654866495B
:109F3800002204F0E3FF01233370FCF7FFF9082047
:109F48000AF074FE2B78042B3FF463AF02F0DCFDBB
:109F58005E4C2368C01A5E4B1B68984223D90A20BE
:109F680000230FA902460B930C930D938DF83830FC
:109F7800FCF768F90FA80CF067FB0FA902460BA8BD
:109F8800FCF745FA4B4B0121188806F063FD514B4D
:109F98000B991A78504804F001FF02F0B5FD2060D3
:109FA8000BA8FCF752FA0024A30004934B4B002C97
:109FB80053F824804A4B08BF00265B6818BF042664
:109FC800C3F308037BBB8EB3464F3B6833443B6007
:109FD80002F09AFD824602F071FD83464AF6AA22F3
:109FE800414B1A6002F090FDCAEB0000B0421DD848
:109FF800022810D94FF47A7303FB06B602F05EFD0F
:10A008003A4B301A984211D8430814BF0120002057
:10A0180007F074F9F2E7012007F016FD059B1B789D
:10A02800002BDBD135E0304607F00EFD0826234F24
:10A03800013E37F82600012106F00CFD002EF6D16E
:10A04800B4421D4B09BF049A33F82600985A0121DF
:10A0580018BF0021013606F0FDFC082EF0D1B8F13A
:10A06800000F08DC0134042C9ED109200AF0DEFD23
:10A07800FCF764F9CDE608F00101013E37F8260047
:10A0880081F0010106F0E6FC4FEA6808002EF2D1E3
:10A09800E8E73B68B3F57A7FA0D301200BF04EF8D0
:10A0A80099F80030002BF8D198E700BF500600203F
:10A0B800EB05002068000020C4AC0108A4AC01082E
:10A0C8005AAC010864AC01084D650008BC140020B6
:10A0D8006C000020C114002072AC01085800002058
:10A0E80000ED00E01415002000300040A0860100BB
:10A0F80020B9034B08221B681A8270470148704731
:10A10800C80600209C06002020B9034B08221B68C3
:10A118001A82704701487047C80600209C06002034
:10A1280021B901288CBF0220002070470220704707
:10A1380010B50A4B1968CA78042A0CD84C8A084BFF
:10A1480028B903EBC2039B881B1B0B8210BD53F875
:10A158003230181910BD002010BD00BFC8060020FD
:10A16800FCAC0108054B1A68538A18B9C3F14303BC
:10A178001382704702481844704700BFC806002081
:10A188001CAD0108054B1A68538A18B9C3F11203AC
:10A198001382704702481844704700BFC806002061
:10A1A80091AD0108074B1B681B7803F07F03212B37
:10A1B80006D100F0DF00022814BF022000207047FB
:10A1C80002207047C8060020212810B508D1114B7D
:10A1D8001B681B7803F07F03212B10D0022010BDD1
:10A1E8002028FBD10B4B0C4A1B681B78107003F01E
:10A1F8007F03212B094B18BF00230BB9EEE7084B4F
:10A20800044A0024126820469361548298472046E5
:10A2180010BD00BFC8060020F4050020F9A0000802
:10A2280011A100082DE9F0438DB01F469DF850306C
:10A2380006460D469046032B00F23981DFE803F00D
:10A248000239C0C09C4B00249F6814237B737C7226
:10A25800BC72FC723C73BC73FC733C7407F1110054
:10A268000494ADF8144001F046FF034603F8024B8E
:10A27800447004AAA25C1A550134062CF9D100F1E5
:10A288000C010A4601230372002343728372C372CE
:10A29800531A1BB2AB4203D2F35C02F8013BF7E757
:10A2A80005F1180292B2002A00F0F3800520394621
:10A2B800E8E000240DF110094846214620227F08D5
:10A2C8008DF802400BF08AFCBC4208F1020810D25B
:10A2D80018F8023C68468DF8003018F8013C002157
:10A2E80010228DF801300DF02FF909F8040001341F
:10A2F800EAE7714B0024D3F8088001230294ADF8F3
:10A308000C4088F80930202388F80D3088F80A4076
:10A3180088F80B4088F80C4088F80E4088F80F4001
:10A3280088F8104008F11100294601F0E4FE0346C0
:10A3380003F8024B447002AAA25C1A550134062C99
:10A34800F9D100240123037244728472C47205F1A6
:10A358000C010C3001F0CFFE394601F0CCFE011D96
:10A368000A46047044708470C470531A1BB2AB421E
:10A3780003D2F35C02F8013BF7E7002404201146FE
:10A388008B1A1BB2BB4207D20CAE3344234413F8DA
:10A39800203C01F8013BF3E701380A463C44EED182
:10A3A80005EB8702243292B242B141460520D2B26F
:10A3B80001F0F7FE052001A901F000FF019B69E00B
:10A3C8003D4B0024D3F80890032389F8093028234B
:10A3D80089F80D3089F80A4089F80B4089F80C4053
:10A3E80089F80E4089F80F4089F8104009F11100EA
:10A3F8000494ADF8144001F07EFE034603F8024BC6
:10A40800447004AAA25C1A550134062CF9D118220A
:10A41800027301231E220372027400230222437274
:10A428008372C37243738373C37343748374C37433
:10A4380043758375C375027505F10801183001F07D
:10A448005AFE394601F057FE03461A1A12B2AA42BA
:10A4580003D2B25C03F8012BF7E71946B8F1000FF5
:10A4680007D107F12C022A4492B292B1052049463D
:10A4780008E0CA1A12B2BA42F3D218F8022001F858
:10A48800012BF6E7D2B201F08CFE052002A901F0FB
:10A4980095FE029B5A1C1EBF084A013313700E20FA
:10A4A80001210022054B01F0B1FE002001E04FF030
:10A4B800FF300DB0BDE8F08304060020A806002098
:10A4C80070B53B4D86B0A968FF234B7206AC0023DC
:10A4D8004FF0FF368B72CB720B73042244F8046D75
:10A4E800062001F05EFE2146062001F067FE059C6D
:10A4F800002C59D121460E2001F068FE10210E20B3
:10A5080001F064FE214610222A480BF067FB224620
:10A518001021284B0E2001F079FE0394A9689DF8BC
:10A528000C3005944B729DF80D3002948B729DF897
:10A538000E300494CB729DF80F304C750B739DF858
:10A5480008308C754B739DF80930CC758B739DF86A
:10A558000A308DF80760CB739DF80B3014220B740A
:10A568009DF8103042F201004B749DF811308B7445
:10A578009DF81230CB749DF813300B750C769DF84E
:10A5880014304B769DF815308B769DF81630CB76C7
:10A598009DF817300B7701F004FE42F201000DF12F
:10A5A800070101F00BFE00E00124204606B070BD53
:10A5B80004060020A80600202DE9F04792B00446C2
:10A5C800884602F0A1FA00250790B94F7B883E46DD
:10A5D8009BB2002B40F0DA804AF6AA22B54B1A60EB
:10A5E80002F092FA0890089B079A9B1A0993099B14
:10A5F800002BBEBF079B089A9B18AF4AB8BF0993A8
:10A6080013681746002BE0D0099A9A42DDD320231D
:10A61800AA4D0A9300230B931DB1AFF300800146A6
:10A6280000E029460898DFF8A0E2079A099B019004
:10A638000292CDF800E003933B68322004930AAA03
:10A64800002308F0D9FA20230A9300230B931DB1A5
:10A65800AFF30080014600E029463388984A9BB250
:10A668008DE80C0032200AAA002308F0C5FA41F24E
:10A67800070233889BB2934225D841F206029342DF
:10A6880073D240F2022293426FD00DD80C2B06D819
:10A69800082B6AD2002B4DD0062B6ED865E00D2B07
:10A6A80060D040F201220BE041F2020293425FD8EF
:10A6B800B3F5805F59D8B3F5017F53D940F207222B
:10A6C800934237D14EE041F2110293424AD014D856
:10A6D80041F20B02934248D005D841F20902934255
:10A6E80043D045D83EE041F20F02934240D03CD8D7
:10A6F80041F20D0293423BD01CE042F20602934223
:10A7080030D007D8B3F5005F14D942F2040293425F
:10A7180036D827E0B3F5804F00F0538205D8A3F56B
:10A728000053083B012B1DD904E044F20B0293426D
:10A7380000F0478220230A9300230B931DB1AFF347
:10A748000080014600E0294633885E4A9BB28DE8C6
:10A758000C003C200AAA002308F04EFA0B2008F04F
:10A76800BFF92EE2FF2323702BE24FF0FF3305E001
:10A778004FF0FF332360636023E20023236020E26D
:10A78800204600213A220BF029FA1AE27E68337833
:10A79800042B40F08E810121304601F0A6FD0546CC
:10A7A800304601F0A9FD0146002840F0788141F2C9
:10A7B80007039D4206F1050A52D841F206039D425D
:10A7C80080F0B98040F202239D4200F0B48011D895
:10A7D8000C2D09D8082D80F0AE80002D00F05F8187
:10A7E800062D00F2F280A6E00D2D00F0A18040F2C7
:10A7F80001238DE041F202039D4218D8B5F5805F30
:10A8080000F29980B5F5017F40F2928040F207236B
:10A818009D4240F044813379504604F8013B0021C1
:10A8280001F056FD0146204601F065FC37E141F292
:10A8380004039D4200F09E8040F2B48000215046FF
:10A8480001F046FD04212060504601F041FD083426
:10A8580044F8040C06F10D03224606F11D0182E0BE
:10A8680041F211039D4263D03AD841F20B039D4255
:10A8780061D02BD841F209039D425CD000F29F8041
:10A888000021504601F024FD04212060504601F0CB
:10A898001FFD08216060504601F01AFD0C21A060E0
:10A8A800504601F015FD04F10C09E060F6E000BF28
:10A8B8000406002000300040F805002000000000D9
:10A8C800EAAD010823AE0108A7AD010841F20F0364
:10A8D8009D4267D035D841F20D039D424AD0DEE053
:10A8E80042F205039D4200F0948007D841F212031A
:10A8F8009D4233D0B5F5005F1AD8D0E042F2090383
:10A908009D4208D842F208039D4211D242F2060342
:10A918009D420DD0C3E044F20B039D4240F0BF803E
:10A928007379504601213B8601F0DFFC7886B6E05A
:10A9380033792370B3E05046002101F0C9FC206050
:10A94800ADE00021504601F0C3FCA146042149F8BE
:10A95800040B504601F0BCFC60609FE0504601F0DB
:10A96800C4FC20809BE053F8040B8B4242F8040B94
:10A97800F9D194E00021504601F0AAFC042120609E
:10A98800504601F0A5FC08216060504601F0A0FC8B
:10A99800E36804F108093933A0607FD1012101F08F
:10A9A80077FC7BE00021504601F092FC04212060F6
:10A9B800504601F08DFC083444F8040C6FE03379FC
:10A9C8002371DAF80030236069E00021504601F075
:10A9D8007FFC04212060504601F07AFC0821606069
:10A9E800504601F082FC0A21A060504601F07DFC2F
:10A9F8000C3444F8020C224606F1110306F1350125
:10AA080053F8040B8B4242F8040BF9D11B881380CE
:10AA180045E0331D621E06F1080113F8010F8B4251
:10AA280002F8010FF9D1E21CE11D13F8010F02F839
:10AA3800010F8A42F9D106F10C0304F10B0213F855
:10AA4800010F01F8010F9142F9D106F1100104F14B
:10AA58000F0311F8010F02F8010F9A42F9D106F11C
:10AA6800140104F1130211F8010F03F8010F9342C6
:10AA7800F9D106F1180104F1190311F8010F02F8D0
:10AA8800010F9A42F9D106F11E0204F1390112F8B8
:10AA9800010F03F8010F8B42F9D100E04C463B88C7
:10AAA8004A4A9BB29D423ED10023138082F841302E
:10AAB80039E0FB8E9BB2C3B9454920220A920B9319
:10AAC80011B1AFF3008001464248FA8E3B880090EE
